:1000000016EF00F00000000000EF00F0000000001C
:0A0010000000000000000000F3D71C
:10001C000900F5CFE6FF0006FBE10106F9E112004D
:10002C00946A010E826E156A070E155C11E282CF7E
:10003C0000F00036009000C082FF6B0E0C6E620E5A
:10004C000D6E0D2EFED70C2EFCD70000152AECD70A
:10005C00156A060E155C11E282CF00F00032009E8C
:10006C0000C082FF6B0E0C6E620E0D6E0D2EFED755
:0E007C000C2EFCD70000152AECD7D3D7FFD7E7
:020000040030CA
:0D000100C10F3E3C1D81FF0FC00FE00F40FE
:00000001FF
