:040000007DEF00F0A0
:10000800F2A405D0154A162A060ED66EF2941100EF
:0E001800870E0D6E0D2EFED7000000001200A8
:10002600266A22C001F0010E006E015004E000367F
:100036000090FF0FFBD700C025F020C0E9FF21C0CC
:10004600EAFF0050EE14016E0152010ED8A4000E14
:10005600006E2450001A18E02350000804E2D9DF8D
:10006600D8DF2306F9D720C0E9FF21C0EAFF2550D3
:10007600EE14016E0152010ED8A4000E006E24503B
:0E008600001A02E0FF0E266E26C000F01200E7
:10009400FF0E1B6EFF0E1C6EFF0E1D6EFF0E1E6EFE
:1000A400FF0E176EFF0E186EFF0E196EFF0E1A6EFE
:1000B400949E2050040A02E1948A01D0949A948870
:1000C400C66A2050C6122250C6122150C7122252AC
:1000D40005E02350000AD8B4C78C03D02352D8A417
:0600E400C78CC68A120061
:1000EA000900F5CFE6FF0006FBE10106F9E112007F
:1000FA00020E206E216A226A010E236EC6DF010EED
:10010A00936EF00E816E0F0EC112156A166A470EB3
:10011A00D56EC00EF26EF28A946A2A0E826E1F9013
:10012A00D58E810E206E0F0E216E226A236A010E71
:10013A00246E74DF0052D8A41F801FA00ED0810E37
:10014A00206E0F0E216E226A236A246A67DF00522C
:10015A0004E0D57E010E826E1F90800E006E800E26
:10016A001618005C02E11550070803E2821E156AA0
:06017A00166AD7D7FFD77B
:020000040030CA
:0D000100C10F3E3C1D81FF0FC00FE00F40FE
:00000001FF
