:10000000B1EF00F00000000000EF00F00000000081
:0A0010000000000000000000F3D71C
:0C001C0016B002D0899201D08982120037
:0C00280016B002D0899001D0898012002F
:10003400020E0C6E0E0E0D6E0D2EFED70C2EFCD77E
:1000440000000000010E166EE7DF010E166EEADFF7
:10005400020E0C6E0E0E0D6E0D2EFED70C2EFCD75E
:100064000000000015C081FF166ADCDF166AD4DFC9
:02007400120078
:100076000900F5CFE6FF0006FBE10106F9E11200F3
:10008600956A010E836E050E0B6E280E0C6EE00E41
:100096000D6E0D2EFED70C2EFCD70B2EFAD70000B8
:1000A600030E836E050E0B6E280E0C6EE00E0D6EA3
:1000B6000D2EFED70C2EFCD70B2EFAD70000070EFE
:1000C600836E050E0B6E280E0C6EE00E0D6E0D2E59
:1000D600FED70C2EFCD70B2EFAD700000F0E836E20
:1000E600050E0B6E280E0C6EE00E0D6E0D2EFED755
:1000F6000C2EFCD70B2EFAD70000836AD50E0C6E99
:10010600C60E0D6E0D2EFED70C2EFCD700000F0E60
:10011600836ED50E0C6EC60E0D6E0D2EFED70C2EF2
:10012600FCD70000836AD50E0C6EC60E0D6E0D2E22
:10013600FED70C2EFCD700000F0E836E070E0B6E3B
:100146003C0E0C6ED10E0D6E0D2EFED70C2EFCD76E
:0C0156000B2EFAD700000000836A120094
:1001620091DF936A926A166A58DF010E166E5BDFA0
:10017200200E0C6EE90E0D6E0D2EFED70C2EFCD746
:1001820000000000390E816E166A4DDF0B0E0C6EF8
:10019200A20E0D6E0D2EFED70C2EFCD70000010E06
:1001A200166E41DF0B0E0C6EA20E0D6E0D2EFED7DB
:1001B2000C2EFCD700001C0E816E166A34DF0B0E6B
:1001C2000C6EA20E0D6E0D2EFED70C2EFCD700006B
:1001D200010E166E28DF0B0E0C6EA20E0D6E0D2E8A
:1001E200FED70C2EFCD70000520E816E166A1BDF62
:1001F2000B0E0C6EA20E0D6E0D2EFED70C2EFCD722
:100202000000010E166E0FDF0B0E0C6EA20E0D6EAD
:100212000D2EFED70C2EFCD70000690E816E166AD9
:1002220002DF0B0E0C6EA20E0D6E0D2EFED70C2EE3
:10023200FCD70000010E166EF6DE0B0E0C6EA20E3F
:100242000D6E0D2EFED70C2EFCD700007F0E816E98
:10025200166AE9DE0B0E0C6EA20E0D6E0D2EFED787
:100262000C2EFCD70000010E166EDDDE0B0E0C6E9E
:10027200A20E0D6E0D2EFED70C2EFCD70000380EEE
:10028200816E166AD0DE0B0E0C6EA20E0D6E0D2E56
:10029200FED70C2EFCD70000010E166EC4DE0B0E2C
:1002A2000C6EA20E0D6E0D2EFED70C2EFCD700008A
:1002B2000F0E816E166AB7DE0B0E0C6EA20E0D6E5D
:1002C2000D2EFED70C2EFCD70000010E166EABDEF3
:1002D2000B0E0C6EA20E0D6E0D2EFED70C2EFCD741
:1002E2000000010E816E166A9EDE0B0E0C6EA20ECF
:1002F2000D6E0D2EFED70C2EFCD70000010E166ED1
:1003020092DE0B0E0C6EA20E0D6E0D2EFED70C2E73
:10031200FCD70000060E816E166A85DE630E156E2E
:1003220088DE6F0E156E85DE750E156E82DE630E2B
:10033200156E7FDE6F0E156E7CDE750E156E79DE24
:10034200200E156E76DE740E156E73DE750E156E4A
:1003520070DE630E156E6DDE166A5FDE0B0E0C6EBE
:10036200A20E0D6E0D2EFED70C2EFCD70000010E34
:10037200166E59DE0B0E0C6EA20E0D6E0D2EFED7F2
:100382000C2EFCD700001C0E816E166A4CDE010E8C
:10039200166E43DE6F0E156E4CDE750E156E49DE5F
:1003A200630E156E46DE6F0E156E43DE750E156E0C
:1003B20040DE200E156E3DDE740E156E3ADE750EB1
:1003C200156E37DE050E0B6E280E0C6EE00E0D6EEE
:1003D2000D2EFED70C2EFCD70B2EFAD70000FFD71E
:020000040030CA
:0D000100011F1EFF0281FF3FC03FE03F4096
:00000001FF
