:100000001CEF02F00000000000EF00F00000000014
:0A0010000000000000000000F3D71C
:0C001C005CB002D0899001D089801200F5
:0C0028005CB002D0899201D089821200E5
:0E003400870E0D6E0D2EFED70000000012008C
:10004200576A586A010E5C6EEEDF57505524E96E0E
:1000520058505620EA6EEE50000A40E0010E5C6EE7
:10006200DCDF020E0C6E0E0E0D6E0D2EFED70C2E68
:10007200FCD70000000057505524E96E5850562016
:10008200EA6EEECF81FF5C6AC8DF000E581802E10B
:100092000F0E571816E15C6AC6DF010E5C6EBDDFFB
:1000A200020E0C6E0E0E0D6E0D2EFED70C2EFCD710
:1000B20000000000C00E816E5C6AAFDF010E5C6E54
:1000C200B2DF020E0C6E0E0E0D6E0D2EFED70C2E32
:1000D200FCD700000000574A582AB7D75C6AA3DF52
:0200E20012000A
:1000E4005C6AA0DF010E5C6E97DF020E0C6E0E0ED2
:1000F4000D6E0D2EFED70C2EFCD700000000010E55
:10010400816E020E0C6E0E0E0D6E0D2EFED70C2E91
:0C011400FCD7000000005C6A7FDF1200D6
:100120000900F5CFE6FF0006FBE10106F9E1120048
:10013000956A010E836E050E0B6E280E0C6EE00E96
:100140000D6E0D2EFED70C2EFCD70B2EFAD700000D
:10015000030E836E050E0B6E280E0C6EE00E0D6EF8
:100160000D2EFED70C2EFCD70B2EFAD70000070E53
:10017000836E050E0B6E280E0C6EE00E0D6E0D2EAE
:10018000FED70C2EFCD70B2EFAD700000F0E836E75
:10019000050E0B6E280E0C6EE00E0D6E0D2EFED7AA
:1001A0000C2EFCD70B2EFAD70000836AD50E0C6EEE
:1001B000C60E0D6E0D2EFED70C2EFCD700000F0EB6
:1001C000836ED50E0C6EC60E0D6E0D2EFED70C2E48
:1001D000FCD70000836AD50E0C6EC60E0D6E0D2E78
:1001E000FED70C2EFCD700000F0E836E070E0B6E91
:1001F0003C0E0C6ED10E0D6E0D2EFED70C2EFCD7C4
:0C0200000B2EFAD700000000836A1200E9
:10020C005B6A57C001F0010E006E015004E000362D
:10021C000090FF0FFBD700C05AF055C0E9FF56C045
:10022C00EAFF0050EE14016E0152010ED8A4000E2C
:10023C00006E5950001A18E05850000804E2F4DE21
:10024C00F3DE5806F9D755C0E9FF56C0EAFF5A50FD
:10025C00EE14016E0152010ED8A4000E006E59501E
:0E026C00001A02E0FF0E5B6E5BC000F0120095
:10027A005C6AD5DE010E5C6ECCDE200E0C6EE90ED9
:10028A000D6E0D2EFED70C2EFCD700000000390E85
:10029A00816E5C6ABEDE0B0E0C6EA20E0D6E0D2E0A
:1002AA00FED70C2EFCD70000010E5C6EB2DE0B0EE0
:1002BA000C6EA20E0D6E0D2EFED70C2EFCD7000072
:1002CA001C0E816E5C6AA5DE0B0E0C6EA20E0D6E04
:1002DA000D2EFED70C2EFCD70000010E5C6E99DEA7
:1002EA000B0E0C6EA20E0D6E0D2EFED70C2EFCD729
:1002FA000000520E816E5C6A8CDE0B0E0C6EA20E32
:10030A000D6E0D2EFED70C2EFCD70000010E5C6E72
:10031A0080DE0B0E0C6EA20E0D6E0D2EFED70C2E6D
:10032A00FCD70000690E816E5C6A73DE0B0E0C6EE0
:10033A00A20E0D6E0D2EFED70C2EFCD70000010E5C
:10034A005C6E67DE0B0E0C6EA20E0D6E0D2EFED7C6
:10035A000C2EFCD700007F0E816E5C6A5ADE0B0EF3
:10036A000C6EA20E0D6E0D2EFED70C2EFCD70000C1
:10037A00010E5C6E4EDE0B0E0C6EA20E0D6E0D2E75
:10038A00FED70C2EFCD70000380E816E5C6A41DE67
:10039A000B0E0C6EA20E0D6E0D2EFED70C2EFCD778
:1003AA000000010E5C6E35DE0B0E0C6EA20E0D6E99
:1003BA000D2EFED70C2EFCD700000F0E816E5C6A44
:1003CA0028DE0B0E0C6EA20E0D6E0D2EFED70C2E15
:1003DA00FCD70000010E5C6E1CDE0B0E0C6EA20E2A
:1003EA000D6E0D2EFED70C2EFCD70000010E816E6D
:1003FA005C6A0FDE0B0E0C6EA20E0D6E0D2EFED772
:10040A000C2EFCD70000010E5C6E03DE0B0E0C6E88
:10041A00A20E0D6E0D2EFED70C2EFCD70000060E76
:0E042A00816E5C6AF6DD010E5C6EF9DD12007B
:1004380080EC02F079DE928492869288936A929098
:10044800929217DF360E556E000E566EF6DD050ECB
:100458000B6E280E0C6EE00E0D6E0D2EFED70C2EB8
:10046800FCD70B2EFAD7000039DE150E556E000E9C
:10047800566EE3DD800E556E0F0E566E040E576EE7
:10048800010E586E010E596EBDDE005201E0548017
:1004980054A010D0800E556E0F0E566E040E576E77
:1004A800010E586E596AAEDE005204E0010E5C6E11
:0804B800B1DD5490DFD7FFD73E
:1005000010EE15F03F0E006E010E016EC00EF66E7D
:0E051000040EF76E000EF86E90EC00F0120074
:1004C000636F6E7472617374652020202020202079
:1004D0002D23232323232323202020202020202BEF
:0104E000001B
:1004E1007265676C6572206C6520202020202020B9
:0E04F100636F6E747261737465202E2E2E0080
:020000040030CA
:0D000100011F1EFF0281FF3FC03FE03F4096
:00000001FF
