:10000000EEEF40F00000000000EF00F00000000004
:0A0010000000000000000000F3D71C
:10001C004EC4C9FFC7B002D00000FCD7C9CF00F056
:02002C001200C0
:10002E00F250026EF29E0500FF6A0150FE6E005005
:08003E00FD6E02BEF28E1200FD
:10004600828007C3E1FF08C3E2FFFF0EE66E05C329
:0A00560000F006C301F0E8DF12001D
:10006000400E04014525006E07C3E1FF08C3E2FF0F
:1000700000C0E6FF05C300F006C301F0D8DF07C3E8
:10008000E1FF08C3E2FF49C4E6FF05C300F006C371
:1000900001F0CDDF07C3E1FF08C3E2FF48C4E6FF7C
:1000A00005C300F006C301F0C2DF07C3E1FF08C3C8
:1000B000E2FF47C4E6FF05C300F006C301F0B7DF67
:1000C00007C3E1FF08C3E2FF46C4E6FF05C300F033
:1000D00006C301F0ACDF07C3E1FF08C3E2FF4AC477
:1000E000E6FF05C300F006C301F0A1DF04014C6B7D
:1000F0004D6B07C3E1FF08C3E2FFFF0EE66E05C3C9
:1001000000F006C301F093DF00C04BF404014C4B38
:100110004D2B800E0014016E0150000A07E0000E06
:100120004D5D02E1640E4C5D01E2E3D74BC400F08B
:020130001200BB
:1001320007C3E1FF08C3E2FFFF0EE66E05C300F04E
:1001420006C301F073DF0050FE0A01E0F1D712008E
:1001520007C3E1FF08C3E2FF4C0EE66E05C300F0E1
:1001620006C301F063DF07C3E1FF08C3E2FFE66AEB
:1001720005C300F006C301F059DF07C3E1FF08C35E
:10018200E2FFE66A05C300F006C301F04FDF07C3D2
:10019200E1FF08C3E2FFE66A05C300F006C301F00F
:1001A20045DF07C3E1FF08C3E2FFE66A05C300F0CB
:1001B20006C301F03BDF07C3E1FF08C3E2FFFF0E06
:1001C200E66E05C300F006C301F030DF0401466BA2
:1001D200476B07C3E1FF08C3E2FFFF0EE66E05C3EC
:1001E20000F006C301F022DF00C045F40401464BD3
:1001F200472B800E0014016E0150000A07E0000E2A
:10020200475D02E1640E465D01E2E3D745AF04D0EB
:1002120019DF45C400F012D007C3E1FF08C3E2FFB3
:10022200FF0EE66E05C300F006C301F0FFDE00C05C
:0E02320045F40050000AF0E005DF006A1200FB
:040240008290120096
:10024400FDDF000E000A02E1040E151809E137C4AF
:100254003FF438C440F439C441F43AC442F414D0ED
:10026400090E006E37C43FF438C440F439C441F475
:100274003AC442F4005008E004013F373F9140374C
:1002840041374237FF0FF7D70401110E456F3FC4C2
:1002940046F440C447F441C448F442C449F4FF0E50
:1002A4004A6FDCDE005204E0CCDE010E006E4BD05F
:1002B40007C3E1FF08C3E2FFFF0EE66E05C300F0CB
:1002C40006C301F0B2DE0050FE0A01E0F1D70401DA
:1002D4003D6B3E6B020E3E5D02E1000E3D5D1BE296
:1002E4003D513B25436F3E513C21446F07C3E1FF21
:1002F40008C3E2FFFF0EE66E05C300F006C301F07B
:1003040094DE43C4E1FF44C4E2FF00C0E6FF0401FD
:100314003D4B3E2BDFD707C3E1FF08C3E2FFFF0ECF
:10032400E66E05C300F006C301F07FDE07C3E1FFFC
:1003340008C3E2FFFF0EE66E05C300F006C301F03A
:0803440074DE7FDE006A120086
:10034C0002DF0050000A03E0FF0E006E01D0006ACD
:02035C0012008D
:10035E00E9DE0401396B3A6B020E3A5D02E1000EE2
:10036E00395D1BE2395137253B6F3A5138213C6FCD
:10037E0007C3E1FF08C3E2FFFF0EE66E05C300F000
:10038E0006C301F04DDE3BC4E1FF3CC4E2FF00C0FA
:10039E00E6FF0401394B3A2BDFD707C3E1FF08C351
:1003AE00E2FFFF0EE66E05C300F006C301F038DE75
:1003BE0007C3E1FF08C3E2FFFF0EE66E05C300F0C0
:0803CE0006C301F02DDE120050
:1003D60034DF000E000A02E1040E151809E137C4E5
:1003E6003BF438C43CF439C43DF43AC43EF414D06A
:1003F600090E006E37C43BF438C43CF439C43DF4EE
:100406003AC43EF4005008E004013B373B913C37C8
:100416003D373E37FF0FF7D70401120E456F3BC439
:1004260046F43CC447F43DC448F43EC449F4FF0EC8
:100436004A6F13DE005204E003DE010E006E01D0A7
:04044600006A120036
:10044A000001A751000A04E0A751020A01E002D004
:10045A00006A0DD076DF000E001806E0FF0E0001DC
:10046A00EC6FFF0E006E03D00001A76B006A12004A
:10047A0004012B517A0806E3610E2B5D03E3010E9A
:08048A00006E01D0006A1200AF
:1004920004012B51390806E3300E2B5D03E3010EF4
:0804A200006E01D0006A120097
:1004AA002BC437F42CC438F42DC439F42EC43AF4CE
:1004BA002FC43BF430C43CF4C0DE0050000A03E011
:0A04CA00FF0E006E01D0006A120060
:1004D40004012B515A0806E3410E2B5D03E3010E80
:0804E400006E01D0006A120055
:1004EC002BC437F42CC438F42DC439F42EC43AF48C
:1004FC006CDF0050000A03E0FF0E006E01D0006AB2
:02050C001200DB
:10050E0098DE000E000A02E1040E151809E12BC454
:10051E0033F42CC434F42DC435F42EC436F414D074
:10052E00090E006E2BC433F42CC434F42DC435F4F0
:10053E002EC436F4005008E00401333733913437BB
:10054E0035373637FF0FF7D70401180E456F33C412
:10055E0046F434C447F435C448F436C449F4FF0EA7
:10056E004A6F77DD005204E067DD010E006E8BD01E
:10057E0007C3E1FF08C3E2FFFF0EE66E05C300F0FE
:10058E0006C301F04DDD07C3E1FF08C3E2FFFF0E16
:10059E00E66E05C300F006C301F042DD07C3E1FFBE
:1005AE0008C3E2FFFE0EE66E05C300F006C301F0BF
:1005BE0037DD0401316B326B3251010802E13151EA
:1005CE00FF0815E331512F25E96E32513021EA6EC5
:1005DE0007C3E1FF08C3E2FFEECFE6FF05C300F05D
:1005EE0006C301F01DDD0401314B322BE5D707C3E5
:1005FE00E1FF08C3E2FFFF0EE66E05C300F006C37F
:10060E0001F00EDD07C3E1FF08C3E2FFFF0EE66E49
:10061E0005C300F006C301F003DD07C3E1FF08C305
:10062E00E2FFFF0EE66E05C300F006C301F0F8DC34
:10063E0000C031F4000E0401326F1F0E3115016E31
:10064E0032C402F0000E021601C031F402C032F4C0
:10065E00000E021802E1050E011804E0EDDC020E98
:10066E00006E11D007C3E1FF08C3E2FFFF0EE66E76
:10067E0005C300F006C301F0D3DC0050FF0A01E011
:08068E00F1D7DADC006A12006A
:0E0696002BC437F42CC438F45FDE006A120067
:0E06A40025C4E9FF26C4EAFFEECF00F01200E5
:1006B200010E04012525E96E000E2621EA6EEECF19
:1006C20003F0000E046E000E046E03C001F0006A17
:1006D20000C003F001C004F025C4D9FF26C4DAFF2C
:1006E200DE500026000E012200C003F001C004F01B
:0A06F20000C003F001C004F0120084
:1006FC000B6A0A6A096A00500402F4CF09F0F3CFBE
:10070C0008F001500502F4CF0BF0F3CF0AF00050C3
:10071C000502F3500926F4500A22E86A0B22015014
:10072C000402F3500926F4500A22E86A0B2208C08E
:10073C0000F009C001F00AC002F00BC003F0120077
:0E074C00026A016A006A086A036A000E12005F
:10075A0025C42BF499DE00520CE125C42BF488DE63
:10076A00005207E125C42BF4B0DE005202E1006A10
:08077A0002D0010E006E120016
:10078200030E04012525E96E000E2621EA6EEECF46
:1007920009F0000E0A6E0B6E0C6E000E0A6E0B6EE6
:1007A2000C6E0BC003F00AC002F009C001F0006A2F
:1007B20000C009F001C00AF002C00BF003C00CF047
:1007C200020E2525D96E000E2621DA6EDE50002497
:1007D200056E000E0120066E000E0220076E000E4E
:1007E2000320086E05C009F006C00AF007C00BF02E
:1007F20008C00CF007C003F006C002F005C001F00B
:10080200006A00C009F001C00AF002C00BF003C088
:100812000CF0010E2525D96E000E2621DA6EDE506F
:100822000024056E000E0120066E000E0220076EE7
:10083200000E0320086E05C009F006C00AF007C0CA
:100842000BF008C00CF007C003F006C002F005C0B0
:1008520001F0006A00C009F001C00AF002C00BF00A
:1008620003C00CF025C4D9FF26C4DAFFDE500026EF
:10087200000E01220222032200C009F001C00AF088
:1008820002C00BF003C00CF000C009F001C00AF076
:0A08920002C00BF003C00CF01200CE
:10089C000B820BAE58EF04F0036802680168006825
:0808AC000A360232FF0E1200B1
:1008B4000001A751030A1EE1C6DD0050000A05E04D
:1008C400FF0EEC6FFF0E006E5AD0F451040128198C
:1008D4000EE10001F3510401271909E10001F2516D
:1008E4000401261904E10001F1510401251902E172
:1008F400006A45D00001A751010A05E1FF0EEC6F23
:10090400FF0E006E3CD0040128510001F4190EE1E1
:10091400040127510001F31909E1040126510001E2
:10092400F21904E1040125510001F11927E025C45D
:100934002BF426C42CF427C42DF428C42EF4F50E6D
:1009440004012F6F000E306FAEDD000E00180EE0B4
:10095400FF0E0001F16FFF0EF26FFF0EF36FFF0E3B
:10096400F46FFF0EEC6FFF0E006E09D025C4F1F09A
:1009740026C4F2F027C4F3F028C4F4F0006A12008D
:100984000001A751030A09E15EDD0050000A05E0F9
:10099400FF0EEC6FFF0E006E4DD0A751010A05E16A
:1009A400FF0EEC6FFF0E006E45D0F45104012819C0
:1009B4000EE10001F3510401271909E10001F2518C
:1009C4000401261904E10001F1510401251905E18E
:1009D400020E0001A76F006A2DD025C42BF426C493
:1009E4002CF427C42DF428C42EF47EDD0050000A14
:1009F40006E0FF0E0001EC6FFF0E006E1BD0F50E3B
:100A040004012B6F000E2C6F44DE0050000A06E038
:100A1400FF0E0001EC6FFF0E006E0CD00001010E02
:100A2400A76F25C4F1F026C4F2F027C4F3F028C45C
:060A3400F4F0006A12005C
:100A3A000B840BAE28EF05F0010E036E026A016A01
:0A0A4A00006A0A360232FF0E1200A5
:100A540025C42BF426C42CF427C42DF428C42EF466
:100A640029C42FF42AC430F450DD0050000A03E0F6
:0A0A7400FF0E006E01D0006A1200B0
:080A7E000AAE029E000E1200F8
:100A86001EC402F01FC403F021C400F022C401F00A
:100A9600010E0401215F000E225B0050011009E0E7
:100AA60002C0E1FF03C0E2FF20C4E6FF024A032AB8
:0C0AB600EBD71EC400F01FC401F01200BA
:100AC20004011E517A0804E3610E1E5D01E31E9BC0
:060AD2001EC400F012003A
:100AD80004011F6B206B270E205D02E1100E1F5DC5
:100AE800D8B0AAD0000E000A02E1000E1E1918E1C3
:100AF80020EC01F0010E456F466B476B486B496B64
:100B0800FF0E4A6F30EC00F000C021F423EC00F037
:100B180004012151000A03E1156A006A8FD089D0C7
:100B280020EC01F0370E456F466B476B486B496BFD
:100B3800FF0E4A6F30EC00F000C021F423EC00F007
:100B480004012151010AD8A473D020EC01F0290E28
:100B5800456F000E466F000E476F000E486F400E3F
:100B6800496FFF0E4A6F30EC00F000C021F423EC0F
:100B780000F004012151000A5AE1000E000A02E1C6
:100B8800020E1E1950E120EC01F03A0E456F466B3B
:100B9800476B486B496BFF0E4A6F30EC00F000C0A2
:100BA80021F407C3E1FF08C3E2FFFF0EE66E05C3A9
:100BB80000F006C301F017EC00F000C022F407C3F0
:100BC800E1FF08C3E2FFFF0EE66E05C300F006C3AF
:100BD80001F017EC00F007C3E1FF08C3E2FFFF0EC6
:100BE800E66E05C300F006C301F017EC00F007C37A
:100BF800E1FF08C3E2FFFF0EE66E05C300F006C37F
:100C080001F017EC00F023EC00F004012151000A78
:100C180009E122AD03D0040E156E02D0030E156E45
:100C2800006A0CD004D0010E156E006A07D001D0FE
:0E0C380003D01F4B202B4FD7010E006E120071
:100C4600010E066E000E076E086E096E056A200E0E
:100C5600055C23E2065004011E11016E07501F11A8
:100C6600026E08502011036E09502111046E0450C3
:100C7600091808E10350081805E10250071802E1B7
:100C86000150061803E105C000F009D006360690AB
:100C9600073608360936052ADAD7FF0E006E120027
:100CA6000401256B266B276B286B01DE0050000ABA
:100CB60003E0FF0E006E23D1F50E04011F6F000E38
:100CC600206FF50E216F000E226FFE0E1F25256F79
:100CD600010E2021266FEADC0150AA0A02E1550E18
:100CE600001806E0FC0E0001EC6FFF0E006E07D147
:100CF60021C4E9FF22C4EAFFEECF01F00150E90A60
:100D060015E021C4E9FF22C4EAFFEECF01F001504D
:100D1600EB0A0BE1020E04012125E96E000E2221E9
:100D2600EA6EEE50900A01E101D006D0FB0E0001FA
:100D3600EC6FFF0E006EE3D004011E6B010E1E5D0C
:100D4600D8B0DCD00A0E006E000E016E1EC404F090
:100D5600000E056ED0DCBA0E0026000E012200C081
:100D660023F401C024F4BE0E1F25256F010E202199
:100D7600266F040E026E1EC400F0000E016E0250B5
:100D860005E0003600900136FF0FFAD70050252700
:100D96000150262384DC23C4E1FF24C4E2FF00C003
:100DA600E6FF0A0E006E000E016E1EC404F0000E71
:100DB600056EA1DCBA0E0026000E0122010E0024EB
:100DC600236F000E0120246FBE0E1F25256F010E16
:100DD6002021266F040E026E1EC400F0000E016E66
:100DE600025005E0003600900136FF0FFAD700509A
:100DF600252701502623040E2527000E26234FDC27
:100E060023C4E1FF24C4E2FF00C0E6FF0A0E006E21
:100E1600000E016E1EC404F0000E056E6CDCBA0EE8
:100E26000026000E0122020E0024236F000E012070
:100E3600246FBE0E1F25256F010E2021266F040E7E
:100E4600026E1EC400F0000E016E025005E0003670
:100E560000900136FF0FFAD70050252701502623B0
:100E6600080E2527000E262389DC23C4E1FF24C4AF
:100E7600E2FF00C0E6FF01C0E6FF02C0E6FF03C0D6
:100E8600E6FF0A0E006E000E016E1EC404F0000E90
:100E9600056E31DCBA0E0026000E0122060E002475
:100EA600236F000E0120246FBE0E1F25256F010E35
:100EB6002021266F040E026E1EC400F0000E016E85
:100EC600025005E0003600900136FF0FFAD70050B9
:100ED6002527015026230C0E2527000E26234EDC3F
:100EE60023C4E1FF24C4E2FF00C0E6FF01C0E6FF21
:100EF60002C0E6FF03C0E6FF1E2B20D7006A1200E1
:100F06000CB0C5EF07F00CA26BEF08F00E6A000EEE
:100F16000264DCEF07F0F00E0214D8A4A7EF07F086
:100F2600023A01380F0B02260138F00B016E003829
:100F36000F0B01260038F00B006E08380F0B002649
:100F46000838F00B086E0E84D89002BEC0EF07F08A
:100F560008360036013602360E2A02BEC0EF07F00A
:100F660008360036013602360E2A02BEC0EF07F0FA
:100F760008360036013602360E2A0E50036461EF3B
:100F860008F0035E0BBC08AE66EF08F0D880800E52
:100F960008640030000E002201220222D8A066EF6B
:100FA60008F0023201320032034A6BEF08F066EFB6
:100FB60008F001C002F000C001F008C000F0086AA5
:100FC600000E0E86026413EF08F0F00E0214D8A489
:100FD600FBEF07F0023A01380F0B02260138F00B3F
:100FE600016E00380F0B01260038F00B006E0E84E0
:100FF600D89002BEC0EF07F00036013602360E2A40
:1010060002BEC0EF07F00036013602360E2A02BED7
:10101600C0EF07F00036013602360E2AC0EF07F0A1
:1010260001C002F000C001F0006A000E0E960E88A4
:10103600026440EF08F0F00E0214D8A42BEF08F07B
:10104600023A01380F0B02260138F00B016E0E84AE
:10105600D89002BEC0EF07F0013602360E2A02BE55
:10106600C0EF07F0013602360E2A02BEC0EF07F0C7
:10107600013602360E2AC0EF07F001C002F0016AFF
:10108600000E0E86026471EF08F0F00E0214D8A46A
:101096004FEF08F0023A0E84D89002BEC0EF07F078
:1010A60002360E2A02BEC0EF07F002360E2A02BE34
:1010B600C0EF07F002360E2AC0EF07F0010E0C6EE5
:1010C600B9DC75EF08F0020E0C6ED6DC75EF08F091
:1010D600040E0C6E4EEC04F075EF08F0080E0C6E64
:0610E600A6EC03F012006D
:1010EC000401226B0B0E225D42E2246B22511E2561
:1010FC00E96E000E1F21EA6EEECF25F4ADEC03F085
:10110C00010E001802E1010E246F22511E25E96E1A
:10111C00000E1F21EA6EEE50200A02E1010E246F30
:10112C0022511E25E96E000E1F21EA6EEE502E0A8A
:10113C0002E1010E246F22511E25E96E000E1F21C3
:10114C00EA6EEE505F0A02E1010E246F000E2419C4
:10115C000BE120C4E1FF21C4E2FFE66AEC0E0001C2
:10116C00EC6FFF0E006E6BD00401222BBBD7236BF0
:10117C00226B080E225D1CE222511E25E96E000E28
:10118C001F21EA6EEE50200A0FE023512025E16E5C
:10119C00000E2121E26E22511E25E96E000E1F2148
:1011AC00EA6EEECFE6FF01D003D0232B222BE1D742
:1011BC00080E1E25E96E000E1F21EA6EEE50200A65
:1011CC0009E123512025E16E000E2121E26EE66A31
:1011DC00006A35D023512025E16E000E2121E26EEC
:1011EC002E0EE66E232B080E226F0B0E225D1FE2D5
:1011FC0022511E25E96E000E1F21EA6EEECF25F45A
:10120C00ADEC03F00050000A01E111D02351202570
:10121C00E16E000E2121E26E22511E25E96E000EB8
:10122C001F21EA6EEECFE6FF232B222BDED72351B4
:10123C002025E16E000E2121E26EE66A006A1200A2
:10124C000001A751030A0AE125EC02F00050000A44
:10125C0005E0FF0EEC6FFF0E006E31D0A751010AB6
:10126C0005E1FE0EEC6FFF0E006E29D01EC425F4B6
:10127C001FC426F420C427F421C428F4F50E04015D
:10128C00296F000E2A6F2AEC05F0000E00180EE0F4
:10129C00FF0E0001F16FFF0EF26FFF0EF36FFF0EEA
:1012AC00F46FFE0EEC6FFF0E006E09D01EC4F1F051
:1012BC001FC4F2F020C4F3F021C4F4F0006A120051
:1012CC000001A751020A16E1010EF1250401256F58
:1012DC00000E0001F2210401266F000E0001F32123
:1012EC000401276F000E0001F4210401286FC2ECE9
:1012FC0004F02ED0A751000A05E1FF0EEC6FFF0E93
:10130C00006E26D0F50E04012B6F000E2C6F4BECEB
:10131C0003F00050000A06E0FF0E0001EC6FFF0E18
:10132C00006E16D00001010EF125006E000EF221A8
:10133C00016E000EF321026E000EF421036E00C04C
:10134C00F1F001C0F2F002C0F3F003C0F4F0006A57
:02135C0012007D
:10135E000134083609360450085E0550D8A0053C05
:10136E00095E003601360F0E0C6E01340836093652
:10137E00045000A006D0085E0550D8A0053C095EBA
:10138E0005D008260550D8B0053C09260036013692
:10139E000C2EEBD700B006D0045008260550D8B05E
:0813AE00053C092600001200B5
:1013B6000BC405F00CC406F00DC407F00EC408F00B
:1013C6000001D451055ED551065AD651075AD75158
:1013D600085AA8C004F005C000F006C001F007C016
:1013E60002F008C003F0045007E000360090013612
:1013F60002360336FF0FF8D7D8510026D9510122FD
:0A140600DA510222DB51032212002A
:101410000001D75104010E5D0EE10001D651040117
:101420000D5D09E10001D55104010C5D04E10001ED
:10143000D45104010B5D15E30201F85104010E5D66
:101440000EE10201F75104010D5D09E10201F651BF
:1014500004010C5D04E10201F55104010B5D01E2A0
:101460000CD0F40E0001EC6FFF0E006EFF0E016E4B
:10147000FF0E026E0F0E036E65D0A6C000F00BC407
:1014800025F40CC426F40DC427F40EC428F400502F
:1014900008E004012833273326332533289FFF0F24
:1014A000F7D70001D051040125270001D1510401D3
:1014B00026230001D251040127230001D351040146
:1014C00028235AEC04F00050000A09E0FF0E006ED9
:1014D000FF0E016EFF0E026E0F0E036E33D0B4C00E
:1014E00000F0B5C001F0B6C002F0B7C003F0010EC5
:1014F000005E000E015A025A035A005004010B15F7
:10150000046E01500C15056E02500D15066E035049
:101510000E15076E04C000F005C001F00036009003
:101520000136003600900136F50E0024E96E000EFB
:101530000120EA6EEECF00F0EECF01F0EECF02F028
:06154000EECF03F01200E3
:101546000BC41EF40CC41FF40DC420F40EC421F405
:10155600CADD0D0E04010D250F6F000E0E21106F52
:101566000B0E0B25256F000E0C21266F52EC03F097
:101576000FC4E1FF10C4E2FF00C0E6FF0E0E0D250A
:101586000F6F000E0E21106F1C0E0B25256F000E1F
:101596000C21266FC1EC03F00FC4E1FF10C4E2FF7B
:1015A60000C0E6FF01C0E6FF02C0E6FF03C0E6FF9B
:1015B600120E0D25136F000E0E21146F140E0B253F
:1015C600256F000E0C21266F59EC03F000C003F0C6
:1015D60001C004F0000E056E066E04C012F403C0CE
:1015E60011F40F6B106B1A0E0B25256F000E0C21D4
:1015F600266F59EC03F0000E026E036E0F510026A3
:1016060010510122115102221251032213C4E1FF8B
:1016160014C4E2FF00C0E6FF01C0E6FF02C0E6FF19
:0816260003C0E6FF006A120098
:10162E00086A080E0C6E003408360450085ED8B0F6
:0E163E0002D00826D89000360C2EF5D71200E8
:10164C000FC401F010C402F0010E04010F5F000E74
:10165C00105B000E021802E1000E01181FE00BC413
:10166C00E9FF0CC4EAFF0DC4D9FF0EC4DAFFEE503B
:10167C00DE180FE00BC4E9FF0CC4EAFF0DC4D9FF60
:10168C000EC4DAFFDE50EE5C006E016A000E015AE9
:10169C0007D00B4B0C2B0D4B0E2BD2D7006A016ACB
:0216AC0012002A
:1016AE000BC4E9FF0CC4EAFFEE50000A06E1E20E9D
:1016BE000001EC6FFF0E006E0DD104010F6B0D0ECD
:1016CE000F5D3CE20F510B25E96E000E0C21EA6E08
:1016DE00EE50000A01E132D0116B0F510B25E96E6D
:1016EE00000E0C21EA6EEECF25F4ADEC03F00050A7
:1016FE00010A02E1010E116F0F510B25E96E000E6A
:10170E000C21EA6EEE502E0A02E1010E116F0F51FE
:10171E000B25E96E000E0C21EA6EEE505F0A02E117
:10172E00010E116F1151000A06E1E20E0001EC6F7D
:10173E00FF0E006ECFD004010F2BC1D70DC41EF4C7
:10174E000EC41FF4200E206F0B0E216F000E226FA1
:10175E0043EC05F00BC4E9FF0CC4EAFFEE502E0A71
:10176E0022E1010E0B25E96E000E0C21EA6EEE5001
:10177E002E0A19E1020E0B25E96E000E0C21EA6EFF
:10178E00EE50000A10E10DC4E1FF0EC4E2FF2E0E72
:10179E00E66E010E0D25E16E000E0E21E26E2E0E8E
:1017AE00E66E006A97D00BC4E9FF0CC4EAFFEE5058
:1017BE002E0A11E1010E0B25E96E000E0C21EA6EC8
:1017CE00EE50000A08E10DC4E1FF0EC4E2FF2E0E3A
:1017DE00E66E006A7FD00BC4E9FF0CC4EAFFEE5040
:1017EE002E0A06E1E20E0001EC6FFF0E006E72D0C3
:1017FE000401106B0F6B080E0F5D2DE210510B25BF
:10180E00E96E000E0C21EA6EEE50000A01E123D0C3
:10181E0010510B25E96E000E0C21EA6EEE502E0AC9
:10182E0001E119D00F510D25126F000E0E21136F0D
:10183E0010510B25E96E000E0C21EA6EEECF1EF450
:10184E0061EC05F012C4E1FF13C4E2FF00C0E6FF35
:10185E00102B0F2BD0D710510B25E96E000E0C213B
:10186E00EA6EEE50000A02E1006A34D010510B25E8
:10187E00E96E000E0C21EA6EEE502E0A01E1102BDD
:10188E00080E0F6F0B0E0F5D24E210510B25E96E43
:10189E00000E0C21EA6EEE50000A02E1006A1AD028
:1018AE000F510D25126F000E0E21136F10510B25C7
:1018BE00E96E000E0C21EA6EEECF1EF461EC05F01F
:1018CE0012C4E1FF13C4E2FF00C0E6FF102B0F2B82
:0618DE00D9D7006A1200D8
:1018E4000E0E04010B25256F000E0C21266F59ECFA
:1018F40003F00B0E046E00C002F001C003F00450AC
:1019040005E003320232039EFF0FFAD71F0E0214C2
:10191400006E00C07CF30E0E0B25256F000E0C210B
:10192400266F59EC03F0050E046E00C002F001C0EE
:1019340003F0045005E003320232039EFF0FFAD78E
:101944003F0E0214006E00C07DF30E0E0B25256FB2
:10195400000E0C21266F59EC03F000C002F0023691
:1019640002903F0E0214006E00C07EF3100E0B2591
:10197400256F000E0C21266F59EC03F0090E046E3E
:1019840000C002F001C003F0045005E0033202324B
:10199400039EFF0FFAD77F0E0214006E03C001F0FE
:1019A400000E011600C078F301C079F3BC0E0026C6
:1019B400070E012200C078F301C079F3100E0B2545
:1019C400256F000E0C21266F59EC03F0050E046EF2
:1019D40000C002F001C003F0045005E003320232FB
:1019E400039EFF0FFAD70F0E0214006E00C07AF3A5
:1019F400100E0B25256F000E0C21266F59EC03F0F9
:0E1A04001F0E0014006E00C07BF3006A12007B
:101A1200086A096A000E076203648EEF0DF0025035
:101A220006180A6E075003267E0ED8A01FEF0DF08F
:101A3200035ED8B093EF0DF023EF0DF0035ED8A054
:101A420098EF0DF0028E068E02C00EF001C00BF070
:101A520000C00DF000500402F4CF0CF0015005025A
:101A6200F4CF00F0F3CF08F00402F3500C26F45048
:101A72000822000E00220D500502F3500C26F450ED
:101A82000822000E002202500402F3500826F450ED
:101A9200002202500502016A000E0122F3500026C4
:101AA200F45001220D500602F3500826F450002291
:101AB200026A000E012202220B500602F350002697
:101AC200F4500122000E02220E500602F3500126AB
:101AD200F450022202BE76EF0DF0083600360136CF
:101AE20002360306D8B498EF0DF089EF0DF0D880D6
:101AF200800E08640030000E002201220222D8A0CB
:101B020089EF0DF0023201320032034A93EF0DF0F9
:101B12000AAE029E000E9BEF0DF0010EA6EC03F042
:101B22009BEF0DF0020E4EEC04F09BEF0DF0040E55
:061B32001DEC05F012009D
:101B38000D6A086A0050D8B4000C04180A6E0ABE70
:101B48000D1E0B6A04AE02D0041E042A00AE02D099
:101B5800001E002A005004100A6E0ABE1FD004504E
:101B6800085E003600340836045008260036060E93
:101B78000C6E00340836045000B0085E00A0082639
:101B880000360C2EF6D700A008260BB015D00DAEE7
:101B9800000C001E002A081E082A000C04AE09D0FA
:101BA80000BE04D00050086E006AF1D7006A002A0F
:101BB800000C001E0B2AD3D7082A0450085CD8A4AE
:0E1BC800E6D7086A002A00AEE2D7FF0C120032
:081BD6000B6A0B86FF0E1200E2
:101BDE0053EC06F0F50E04010C6F000E0D6F0001B4
:101BEE00EC51FF0A03E1FF0E006E53D2EC51FC0ADA
:101BFE0003E1FF0E006E4DD2EC51000A5BE1BB51CA
:101C0E000B0A05E0F80EEC6FFF0E006E42D2BCC060
:101C1E0025F4BDC026F4BEC027F4BFC028F45AEC8C
:101C2E0004F00050000A03E0FF0E006E32D2F50EF3
:101C3E0004010C6F000E0D6FFE0E0C25256F010EAC
:101C4E000D21266F59EC03F00150AA0A02E1550E40
:101C5E00001806E0FC0E0001EC6FFF0E006E19D2AC
:101C6E000CC4E9FF0DC4EAFFEECF01F00150E90A02
:101C7E0016E00CC4E9FF0DC4EAFFEECF01F00150EF
:101C8E00EB0A0BE1020E04010C25E96E000E0D218C
:101C9E00EA6EEE50900A01E102D0006A02D0010E07
:101CAE00006E005206E1FB0E0001EC6FFF0E006E9F
:101CBE00F0D11DD00001EC51FB0A19E1800EBA6F74
:101CCE00BC6BBD6BBE6BBF6B200E04010C25256F6C
:101CDE00000E0D21266FC1EC03F000C0C0F001C054
:101CEE00C1F002C0C2F003C0C3F00001EC6B0001F2
:101CFE00EC51000AD8A4C9D10B0E04010C25256F96
:101D0E00000E0D21266F59EC03F000C0C4F001C087
:101D1E00C5F00D0E0C25256F000E0D21266F52EC11
:101D2E0003F000C0C6F00E0E0C25256F000E0D211F
:101D3E00266F59EC03F000C0C7F001C0C8F0100EBA
:101D4E000C25256F000E0D21266F52EC03F000C0FE
:101D5E00C9F0240E0C25256F000E0D21266FC1EC47
:101D6E0003F000C0CAF001C0CBF002C0CCF003C03B
:101D7E00CDF0280E0C25256F000E0D21266F59EC87
:101D8E0003F000C0CEF001C0CFF00001C751BC255A
:101D9E00006EC851BD21016E000EBE21026E000EF6
:101DAE00BF21036E00C0D0F001C0D1F002C0D2F04E
:101DBE0003C0D3F02C0E04010C25256F000E0D214F
:101DCE00266FC1EC03F000C0D4F001C0D5F002C004
:101DDE00D6F003C0D7F0300E0C25256F000E0D2166
:101DEE00266F59EC03F0000E026E036E0001BC511B
:101DFE000026BD510122BE510222BF51032200C056
:101E0E00DCF001C0DDF002C0DEF003C0DFF0D0C0B8
:101E1E00D8F0D1C0D9F0D2C0DAF0D3C0DBF00401D3
:101E2E000B6B0001C95104010B5D18E20001CA5190
:101E3E00D825006ECB51D921016ECC51DA21026E1C
:101E4E00CD51DB21036E00C0D8F001C0D9F002C025
:101E5E00DAF003C0DBF004010B2BE3D7050E006EA6
:101E6E00C4C07FF3C5C080F3000E0301816F826F83
:101E7E00005005E080337F33809FFF0FFAD7000EAE
:101E8E00816F826FC4C0B4F0C5C0B5F0000E000102
:101E9E00B66FB76FB533B433B59FB533B433B59FA3
:101EAE00000EB66FB76FC4C01EF4C5C01FF4000E8F
:101EBE000401206F216F23EC06F000C000F3C6C0B2
:101ECE001EF4000E04011F6F206F216F23EC06F02D
:101EDE0000C0A8F07FC31EF480C31FF481C320F49A
:101EEE0082C321F423EC06F000C083F3B4C01EF4C9
:101EFE00B5C01FF4B6C020F4B7C021F423EC06F031
:101F0E0000C0A6F00001A85103010025006E00C01C
:101F1E00FFF2010E0201FB6F000EFC6F000EFD6F53
:101F2E00000EFE6F005007E0FB37FB91FC37FD37CC
:101F3E00FE37FF0FF8D7200E04011E6F000E1F6F25
:101F4E00206F216F23EC06F000500201FF5D006E42
:101F5E00016A000E00BEFF0E015A00C004F0010E11
:101F6E00006E000E016E000E026E000E036E045027
:101F7E0007E000360090013602360336FF0FF8D721
:101F8E0000C0EDF001C0EEF002C0EFF003C0F0F0C3
:101F9E0000C01EF401C01FF402C020F403C021F4DF
:101FAE0023EC06F000C0FAF2D4C0E8F0D5C0E9F098
:101FBE00D6C0EAF0D7C0EBF00001B06BB16BB26BDC
:101FCE00B36BD8C000F0D9C001F0DAC002F0DBC0AC
:101FDE0003F0BC51005EBD51015ABE51025ABF51B1
:101FEE00035AC0C0F5F2C1C0F6F2C2C0F7F2C3C0C8
:101FFE00F8F200500201F55F0150F65B0250F75BFC
:10200E000350F85BA8C000F0005007E0F833F73338
:10201E00F633F533F89FFF0FF8D7020EF527000EB3
:10202E00F623F723F8230001BB5325E1000E02012E
:10203E00F85D08E1000EF75D05E1FF0EF65D02E1C9
:10204E00F70EF55D04E30B0E0001BB6F14D0000E0E
:10205E000201F85D08E1000EF75D05E10F0EF65D79
:10206E0002E1F70EF55D04E3060E0001BB6F03D02F
:10207E000001010EBB6FBB510B0A05E0F80EEC6FB1
:10208E00FF0E006E06D0006A04D0FB0EEC6FFF0E42
:04209E00006E1200BE
:1020A200E4C00BF4E5C00CF4E6C00DF4E7C00EF496
:1020B2000001D751E75D08E1D651E65D05E1D55152
:1020C200E55D02E1D451E45D15E30201F85104013A
:1020D2000E5D0EE10201F75104010D5D09E10201FD
:1020E200F65104010C5D04E10201F55104010B5D9E
:1020F20001E208D0D4C00BF4D5C00CF4D6C00DF464
:10210200D7C00EF40BC40FF40CC410F40DC411F4B8
:102112000EC412F4A6C004F00BC400F00CC401F00B
:102122000DC402F00EC403F0045007E00332023281
:1021320001320032039EFF0FF8D700500001D02574
:102142000401256F01500001D1210401266F0250C4
:102152000001D2210401276F03500001D3210401A1
:10216200286FB4C000F0B5C001F0B6C002F0B7C02D
:1021720003F0010E005E000E015A025A035A00508B
:102182000B15046E01500C15056E02500D15066EEE
:1021920003500E15076E04C000F005C001F00036B2
:1021A20000900136003600900136F50E0024136FC0
:1021B200000E0120146FC2EC04F00050000A09E086
:1021C200FF0E006EFF0E016EFF0E026E0F0E036E0B
:1021D2006DD10401156B13C4E9FF14C4EAFFEECFFD
:1021E20001F0EECF02F0EECF03F0EECF04F0045098
:1021F200000A08E10350000A05E10250000A02E168
:102202000150000A04E10401010E156FC0D004015F
:10221200040E1327000E1423010E0B27000E0C23AD
:102222000D230E230201F85104010E5D0EE102019D
:10223200F75104010D5D09E10201F65104010C5D43
:1022420004E10201F55104010B5D76E3D4C00BF405
:10225200D5C00CF4D6C00DF4D7C00EF425EC02F0B4
:102262000050000A09E0FF0E006EFF0E016EFF0E25
:10227200026E0F0E036E1AD1A6C004F00BC400F05A
:102282000CC401F00DC402F00EC403F0045007E0C8
:102292000332023201320032039EFF0FF8D70001EF
:1022A2000050D0250401256F01500001D121040105
:1022B200266F02500001D2210401276F0350000152
:1022C200D3210401286FB4C000F0B5C001F0B6C03C
:1022D20002F0B7C003F0010E005E000E015A025A6E
:1022E200035A00500B15046E01500C15056E025076
:1022F2000D15066E03500E15076E04C000F005C0E2
:1023020001F0003600900136003600900136F50EDD
:102312000024136F000E0120146FC2EC04F0005071
:10232200000A09E0FF0E006EFF0E016EFF0E026E44
:102332000F0E036EBBD01CD0040114510001B91959
:1023420003E1B8510401131913E10401F50E136FEF
:10235200000E146F66EC09F00050000A09E0FF0E4F
:10236200006EFF0E016EFF0E026E0F0E036E9ED008
:1023720004010E51121908E10D51111905E10C5118
:10238200101902E10B510F1901E101D024D725ECFC
:1023920002F00050000A09E0FF0E006EFF0E016E0F
:1023A200FF0E026E0F0E036E81D00401155309E178
:1023B200FF0E006EFF0E016EFF0E026E0F0E036E19
:1023C20075D013C4E1FF14C4E2FFFF0EE66EFF0EE8
:1023D200E66EFF0EE66E0F0EE66EA6C004F00BC4AC
:1023E20000F00CC401F00DC402F00EC403F004505E
:1023F20007E00332023201320032039EFF0FF8D7A8
:1024020000500001D02504011E6F01500001D121AE
:1024120004011F6F02500001D2210401206F0350FA
:102422000001D3210401216F26EC09F00050000ABB
:1024320007E0FF0E006EFF0E016E026E036E36D0D5
:102442000001E351FF0A08E1E251FF0A05E1E1510F
:10245200FF0A02E1E051FF0A16E0E0C000F0E1C02D
:1024620001F0E2C002F0E3C003F0010E005E000ED4
:10247200015A025A035A00C0E0F001C0E1F002C062
:10248200E2F003C0E3F00BC4E4F00CC4E5F00DC4C9
:10249200E6F00EC4E7F0010E0201F96F0BC400F082
:0E24A2000CC401F00DC402F00EC403F01200D1
:1024B000025006180E6E086A096A0B6A0350076418
:1024C0004BEF13F006500A6E068E028E03500B6E11
:1024D0000750036E000E0B649BEF12F00B50075E6B
:1024E000D8B43CEF13F0070E07640AEF13F0075E51
:1024F00000C008F001C000F002C001F0026A074EFF
:102500003CEF13F00764DFEF12F0075E00C008F045
:1025100001C000F0016A074E3CEF13F00764BDEF05
:1025200012F0075E00C008F0006A074E3CEF13F09F
:102530000764A4EF12F00AC002F005C001F004C065
:1025400000F0086A68EF14F0030E0764AFEF12F0B2
:10255000075E08380F0B086E074E3CEF13F0D8905B
:102560000832074E3CEF13F0D8900832074E3CEF8C
:1025700013F0D89008323CEF13F0030E0764CEEF4F
:1025800012F0075E08380F0B086E0038F00B0826B3
:1025900000380F0B006E074E3CEF13F0D89000325E
:1025A0000832074E3CEF13F0D89000320832074E45
:1025B0003CEF13F0D890003208323CEF13F0030EDA
:1025C0000764F6EF12F0075E08380F0B086E00384C
:1025D000F00B082600380F0B006E0138F00B0026B8
:1025E00001380F0B016E074E3CEF13F0D89001320B
:1025F00000320832074E3CEF13F0D890013200321F
:102600000832074E3CEF13F0D89001320032083206
:102610003CEF13F0030E076427EF13F0075E083852
:102620000F0B086E0038F00B082600380F0B006EF9
:102630000138F00B002601380F0B016E0238F00B49
:10264000012602380F0B026E074E3CEF13F0D890B4
:102650000232013200320832074E3CEF13F0D890BC
:102660000232013200320832074E3CEF13F0D890AC
:102670000232013200320832096A000E0EAE30EF2B
:1026800014F0081E001E011E021E082A002201224C
:10269000022230EF14F00750D8A451EF13F068EF86
:1026A00014F0096A02C00AF0028E068E0750035C1D
:1026B000076ED8B423EF14F0070E0764F1EF13F0A0
:1026C000075E0450096E0550046E0650056E066ADA
:1026D000074E23EF14F0070E0764C6EF13F0075EF2
:1026E0000450096E0550046E056A074E23EF14F07E
:1026F000070E0764A4EF13F0075E0450096E046A26
:10270000074E23EF14F0070E07648BEF13F00AC097
:1027100002F068EF14F0030E076496EF13F0075E03
:1027200009380F0B096E074E23EF14F0D8900932C9
:10273000074E23EF14F0D8900932074E23EF14F020
:10274000D890093223EF14F0030E0764B5EF13F0AD
:10275000075E09380F0B096E0438F00B09260438A0
:102760000F0B046E074E23EF14F0D8900432093299
:10277000074E23EF14F0D89004320932074E23EFAE
:1027800014F0D8900432093223EF14F0030E0764DA
:10279000DDEF13F0075E09380F0B096E0438F00BFC
:1027A000092604380F0B046E0538F00B0426053893
:1027B0000F0B056E074E23EF14F0D890053204324C
:1027C0000932074E23EF14F0D89005320432093253
:1027D000074E23EF14F0D89005320432093223EF6C
:1027E00014F0030E07640EEF14F0075E09380F0BA8
:1027F000096E0438F00B092604380F0B046E0538F7
:10280000F00B042605380F0B056E0638F00B052675
:1028100006380F0B066E074E23EF14F0D8900632E1
:10282000053204320932074E23EF14F0D8900632F5
:10283000053204320932074E23EF14F0D8900632E5
:10284000053204320932086A000E0EAE30EF14F081
:10285000091E041E051E061E092A04220522062240
:102860000950082604500022055001220650022279
:102870000EBE47EF14F0D8A056EF14F0023201322A
:1028800000320832033E56EF14F062EF14F0D8B075
:102890005CEF14F0000E081E001E011E021E082A26
:1028A0000022012202220A7E5CEF14F0010E0C6E5F
:1028B00083EC07F06AEF14F0020E0C6E83EC07F065
:1028C0006AEF14F0040E0C6E4EEC04F06AEF14F094
:0628D000000E0C6E120068
:1028D600050E156E949023EC00F004010B6B0C6B47
:1028E600000E0C5D02E10A0E0B5D10E207C3E1FF6C
:1028F60008C3E2FFFF0EE66E05C300F006C301F053
:1029060017EC00F004010B4B0C2BEAD720EC01F07E
:10291600456B466B476B486B496B950E4A6F30ECBF
:1029260000F000C00DF423EC00F004010D51010A83
:1029360003E0010E006E7FD020EC01F0080E456F1B
:10294600AA0E466F010E476F000E486F496F870E3D
:102956004A6F30EC00F000C00DF407C3E1FF08C376
:10296600E2FFFF0EE66E05C300F006C301F017ECAA
:1029760000F007C3E1FF08C3E2FFFF0EE66E05C3E2
:1029860000F006C301F017EC00F007C3E1FF08C32F
:10299600E2FFFF0EE66E05C300F006C301F017EC7A
:1029A60000F007C3E1FF08C3E2FFFF0EE66E05C3B2
:1029B60000F006C301F017EC00F023EC00F0040170
:1029C6000D51010A0AE0010E1E6F6CEC05F0005273
:1029D60003E01E6B6CEC05F004D0020E1E6F6CEC6F
:1029E60005F0000E000A02E1050E151803E1020EBD
:1029F600006E21D0000E000A02E1040E15181AE03E
:102A060020EC01F0100E456F000E466F020E476F68
:102A1600000E486F496FFF0E4A6F30EC00F000C0A1
:102A26000DF423EC00F004010D51000A03E0030E3F
:082A3600006E01D0006A1200DD
:102A3E00160E04010B25006E000E0C21016E010E08
:102A4E000024E16E000E0120E26EADC000F00036F3
:102A5E000090003600900036009000C0E6FF160E83
:102A6E000B25006E000E0C21016E010E0024026E6D
:102A7E00000E0120036EAEC000F00032009E003248
:102A8E00009E0032009E02C0E9FF03C0EAFFEE5036
:102A9E00002602C0E1FF03C0E2FF00C0E6FF160EF3
:102AAE000B25E16E000E0C21E26E050E016EAEC01E
:102ABE0000F0015004E000360090FF0FFBD700C07D
:102ACE00E6FF160E0B25026E000E0C21036EAFC034
:102ADE0000F00032009E02C0E9FF03C0EAFFEE5094
:102AEE00002602C0E1FF03C0E2FF00C0E6FF180EA1
:102AFE000B25006E000E0C21016E010E0024E16EFE
:102B0E00000E0120E26EBC0E0001A95D026E02C035
:102B1E0000F00036009000C0E6FF180E04010B25F1
:102B2E00006E000E0C21016E010E0024026E000ECE
:102B3E000120036EABC000F00032009E0032009EFA
:102B4E000032009E02C0E9FF03C0EAFFEE500026ED
:102B5E0002C0E1FF03C0E2FF00C0E6FF180E0B2526
:102B6E00E16E000E0C21E26E050E016EABC000F0A0
:102B7E00015004E000360090FF0FFBD700C0E6FFC7
:102B8E00180E0B25016E000E0C21026E01C0E9FF1E
:102B9E0002C0EAFF0001AC51EE24006E01C0E1FF5D
:0C2BAE0002C0E2FF00C0E6FF006A120057
:102BBA000E0E04010B25006E000E0C21016E010E93
:102BCA000024E16E000E0120E26EADC000F0003676
:102BDA000090003600900036009000C0E6FF0E0E0E
:102BEA000B25006E000E0C21016E010E0024026EF0
:102BFA00000E0120036EAEC000F00032009E0032CB
:102C0A00009E0032009E02C0E9FF03C0EAFFEE50B8
:102C1A00002602C0E1FF03C0E2FF00C0E6FF0E0E7D
:102C2A000B25E16E000E0C21E26E050E016EAEC0A0
:102C3A0000F0015004E000360090FF0FFBD700C0FF
:102C4A00E6FF0E0E0B25026E000E0C21036EAFC0BE
:102C5A0000F00032009E02C0E9FF03C0EAFFEE5016
:102C6A00002602C0E1FF03C0E2FF00C0E6FF100E2B
:102C7A000B25006E000E0C21016E010E0024E16E80
:102C8A00000E0120E26EBC0E0001A95D026E02C0B8
:102C9A0000F00036009000C0E6FF100E04010B257C
:102CAA00006E000E0C21016E010E0024026E000E51
:102CBA000120036EABC000F00032009E0032009E7D
:102CCA000032009E02C0E9FF03C0EAFFEE50002670
:102CDA0002C0E1FF03C0E2FF00C0E6FF100E0B25B1
:102CEA00E16E000E0C21E26E050E016EABC000F023
:102CFA00015004E000360090FF0FFBD700C0E6FF4A
:102D0A00100E0B25016E000E0C21026E01C0E9FFA8
:102D1A0002C0EAFF0001AC51EE24006E01C0E1FFDF
:0C2D2A0002C0E2FF00C0E6FF006A1200D9
:102D3600A6C004F00FC400F010C401F011C402F0E4
:102D460012C403F0045007E00332023201320032AB
:102D5600039EFF0FF8D700C014F401C015F402C09B
:102D660016F403C017F40001D0510024086ED151A7
:102D76000120096ED25102200A6ED35103200B6E38
:102D860008C014F409C015F40AC016F40BC017F4F1
:102D9600B4C000F0B5C001F0B6C002F0B7C003F091
:102DA600010E005E000E015A025A035A0050040139
:102DB6000F15046E01501015056E02501115066EA2
:102DC60003501215076E04C000F005C001F000366E
:102DD60000900136003600900136F50E00241C6F77
:102DE600000E01201D6F08C025F409C026F40AC094
:102DF60027F40BC028F45AEC04F00050000A03E054
:102E0600FF0E006E46D01CC4E1FF1DC4E2FF0BC4DA
:102E1600E6FF0CC4E6FF0DC4E6FF0EC4E6FF14C4CD
:102E260018F415C419F416C41AF417C41BF40401D3
:102E3600136B0001C9510401135D22E218C41EF48C
:102E460019C41FF41AC420F41BC421F426EC09F09B
:102E56000050000A03E0FF0E006E1BD00001CA51AD
:102E6600040118270001CB51040119230001CC519C
:102E760004011A230001CD5104011B23132BD9D7BA
:102E860014C4F1F015C4F2F016C4F3F017C4F4F04C
:042E9600006A1200BC
:102E9A00160E04010B25256F000E0C21266F59EC26
:102EAA0003F00B0E046E00C002F001C003F00450E0
:102EBA0005E003320232039EFF0FFAD71F0E0214F7
:102ECA00006E00C075F3160E0B25256F000E0C213F
:102EDA00266F59EC03F0050E046E00C002F001C023
:102EEA0003F0045005E003320232039EFF0FFAD7C3
:102EFA003F0E0214006E00C076F3160E0B25256FE6
:102F0A00000E0C21266F59EC03F000C002F00236C5
:102F1A0002903F0E0214006E00C077F3180E0B25C4
:102F2A00256F000E0C21266F59EC03F0090E046E72
:102F3A0000C002F001C003F0045005E0033202327F
:102F4A00039EFF0FFAD77F0E0214006E03C001F032
:102F5A00000E011600C071F301C072F3BC0E002608
:102F6A00070E012200C071F301C072F3180E0B257F
:102F7A00256F000E0C21266F59EC03F0050E046E26
:102F8A0000C002F001C003F0045005E0033202322F
:102F9A00039EFF0FFAD70F0E0214006E00C073F3E0
:102FAA00180E0B25256F000E0C21266F59EC03F025
:0E2FBA001F0E0014006E00C074F3006A1200B7
:102FC8001A0E04010B25E16E000E0C21E26E0DC4F1
:102FD800E6FF1A0E0B25006E000E0C21016E010E85
:102FE8000024E16E000E0120E26E0EC4E6FF140E0E
:102FF8000B25E16E000E0C21E26E0FC4E6FF140EE5
:103008000B25006E000E0C21016E010E0024E16EEE
:0E301800000E0120E26E10C4E6FF006A1200F6
:103026000DC404F00EC405F00BC402F00CC403F08A
:103036000FC400F010C401F0010E04010F5F000E72
:10304600105B005001100FE004C0E9FF05C0EAFF65
:1030560002C0E1FF03C0E2FFEECFE6FF024A032A09
:10306600044A052AE5D70BC400F00CC401F012008F
:103076000B800BAE47EF18F0026A0AAEFF0E026E27
:0C308600016E006E0A360232FF0E1200CE
:103092000B6A0A6A096A086A0E6A0334083604501F
:1030A200085E0550D8A0053C095E0650D8A0063C33
:1030B2000A5E0750D8A0073C0B5EE86AD8A0010E52
:1030C2000E5E0336070E0C6E0334083609360A36D6
:1030D2000B360E36045003A012D0085E0550D8A05D
:1030E200053C095E0650D8A0063C0A5E0750D8A0EF
:1030F200073C0B5EE86AD8A0010E0E5E11D00826CE
:103102000550D8B0053C09260650D8B0063C0A2620
:103112000750D8B0073C0B26E86AD8B0010E0E263D
:1031220003360C2ED1D70234083609360A360B364E
:103132000E36045003A012D0085E0550D8A0053CFC
:10314200095E0650D8A0063C0A5E0750D8A0073C8C
:103152000B5EE86AD8A0010E0E5E11D0082605505B
:10316200D8B0053C09260650D8B0063C0A260750BE
:10317200D8B0073C0B26E86AD8B0010E0E260236FC
:10318200070E0C6E0234083609360A360B360E3636
:10319200045002A012D0085E0550D8A0053C095E7A
:1031A2000650D8A0063C0A5E0750D8A0073C0B5E2A
:1031B200E86AD8A0010E0E5E11D008260550D8B0DC
:1031C200053C09260650D8B0063C0A260750D8B05E
:1031D200073C0B26E86AD8B0010E0E2602360C2EEA
:1031E200D1D70134083609360A360B360E3604506A
:1031F20002A012D0085E0550D8A0053C095E065018
:10320200D8A0063C0A5E0750D8A0073C0B5EE86ACD
:10321200D8A0010E0E5E11D008260550D8B0053C8C
:1032220009260650D8B0063C0A260750D8B0073CFB
:103232000B26E86AD8B0010E0E260136070E0C6E78
:103242000134083609360A360B360E36045001A010
:1032520012D0085E0550D8A0053C095E0650D8A0E1
:10326200063C0A5E0750D8A0073C0B5EE86AD8A06D
:10327200010E0E5E11D008260550D8B0053C092675
:103282000650D8B0063C0A260750D8B0073C0B2699
:10329200E86AD8B0010E0E2601360C2ED1D70034C2
:1032A200083609360A360B360E36045001A012D003
:1032B200085E0550D8A0053C095E0650D8A0063C21
:1032C2000A5E0750D8A0073C0B5EE86AD8A0010E40
:1032D2000E5E11D008260550D8B0053C09260650CE
:1032E200D8B0063C0A260750D8B0073C0B26E86A3D
:1032F200D8B0010E0E260036070E0C6E00340836CA
:1033020009360A360B360E36045000A012D0085E7B
:103312000550D8A0053C095E0650D8A0063C0A5EBE
:103322000750D8A0073C0B5EE86AD8A0010E0E5EDB
:1033320011D008260550D8B0053C09260650D8B051
:10334200063C0A260750D8B0073C0B26E86AD8B0DC
:10335200010E0E2600360C2ED1D700B00ED004502E
:1033620008260550D8B0053C09260650D8B0063CC0
:0C3372000A260750D8B0073C0B261200BA
:10337E006E0E0301F05DD8A0CAD0640E046EF0C3C9
:10338E0000F017EC0BF0120E0024056E066A000E0C
:10339E00062205C000F006C001F0000E06BEFF0EAC
:1033AE00026E036E0036009001360236033600368A
:1033BE000090013602360336FD0E0024F66E820EA4
:1033CE000120F76E000E0220F86E0900F5CF00F016
:1033DE000900F5CF01F00900F5CF02F00900F5CF95
:1033EE0003F0000E046E000E056E000E066E7E0ECD
:1033FE00076E09EC0DF000C0F1F301C0F2F302C04C
:10340E00F3F303C0F4F3640E046EF0C300F017EC94
:10341E000BF008C000F00A0E046E17EC0BF0090E4C
:10342E000024056E066A000E062205C000F006C0D6
:10343E0001F0000E06BEFF0E026E036E0036009007
:10344E000136023603360036009001360236033658
:10345E00FD0E0024F66E820E0120F76E000E022085
:10346E00F86E0900F5CF00F00900F5CF01F0090064
:10347E00F5CF02F00900F5CF03F0F1C304F0F2C36B
:10348E0005F0F3C306F0F4C307F009EC0DF000C02D
:10349E00F1F301C0F2F302C0F3F303C0F4F30A0E2A
:1034AE00046EF0C300F017EC0BF008C000F000C083
:1034BE0001F0000E026E036E046E013601900236AC
:1034CE000336043601360190023603360436FD0EFD
:1034DE000124F66E820E0220F76E000E0320F86EA7
:1034EE000900F5CF00F00900F5CF01F00900F5CF86
:1034FE0002F00900F5CF03F0F1C304F0F2C305F0BA
:10350E00F3C306F0F4C307F009EC0DF0B1D0F0519F
:10351E000A08D8B07ED00A0E046EF0C300F017EC85
:10352E000BF0090E0024056E066A000E062205C079
:10353E0000F006C001F0000E06BEFF0E026E036E16
:10354E000036009001360236033600360090013602
:10355E0002360336FD0E0024F66E820E0120F76E43
:10356E00000E0220F86E0900F5CF00F00900F5CF2D
:10357E0001F00900F5CF02F00900F5CF03F0000EBF
:10358E00046E000E056E000E066E7E0E076E09ECC2
:10359E000DF000C0F1F301C0F2F302C0F3F303C06B
:1035AE00F4F30A0E046EF0C300F017EC0BF008C033
:1035BE0000F000C001F0000E026E036E046E0136C4
:1035CE000190023603360436013601900236033678
:1035DE000436FD0E0124F66E820E0220F76E000EEA
:1035EE000320F86E0900F5CF00F00900F5CF01F0C9
:1035FE000900F5CF02F00900F5CF03F0F1C304F096
:10360E00F2C305F0F3C306F0F4C307F009EC0DF0B6
:10361E002FD0F0C300F0000E016E026E036E003666
:10362E00009001360236033600360090013602361F
:10363E000336FD0E0024F66E820E0120F76E000E8C
:10364E000220F86E0900F5CF00F00900F5CF01F069
:10365E000900F5CF02F00900F5CF03F0000E046E5D
:10366E00000E056E000E066E7E0E076E09EC0DF056
:02367E00120038
:103680000A6A0350D8A40A800750D8A40A820A50B4
:10369000D8B4A3EF1BF0030AD8B45CEF1BF00AB058
:1036A00057EF1BF006AEA1EF1BF09FEF1BF002AE31
:1036B0009FEF1BF0A1EF1BF00250800B0A6E029EE1
:1036C0000650800B069E0A18D8B46DEF1BF00A5006
:1036D000D8B49FEF1BF0A1EF1BF00750035CD8B4E8
:1036E00077EF1BF0D8A093EF1BF099EF1BF006507B
:1036F000025CD8B481EF1BF0D8A093EF1BF099EFD8
:103700001BF00550015CD8B48BEF1BF0D8A093EFF1
:103710001BF099EF1BF00450005CD8B4A3EF1BF032
:10372000D8B099EF1BF00A52D8B4A1EF1BF09FEF6D
:103730001BF00A52D8B49FEF1BF0A1EF1BF0D8800A
:0E3740001200D8901200D880D8841200120017
:10374E000301F051390806E3300EF05D03E3010E7C
:08375E00006E01D0006A1200A8
:103766000450000A08E10550000A05E1FF0E006E4C
:103776007F0E016E58D00D6A096A086A0150001062
:10378600D8B4000C015005180A6E0ABE0D1E0B6A4D
:1037960005AE05D0041E051E042AD8B4052A01AEBE
:1037A60005D0001E011E002AD8B4012A01500510BA
:1037B6000A6E0ABE10D0AFEC09F00BB020D00DAEE9
:1037C600000C001E011E002AD8B4012A081E091E7C
:1037D600082AD8B4092A000C05AE0DD001BE07D0C0
:1037E6000150096E0050086E016A006AE8D7016A46
:1037F600006A002A000C011E001E0B2ADDD7082ACB
:10380600D8B4092A0450085CD8A4D9D70550095C55
:10381600D8A4D5D7096A086A002AD8B4012A01AE05
:08382600CED70000FF0C1200D8
:10382E000450000A12E10550000A0FE10650000A8A
:10383E000CE10750000A09E1FF0E006EFF0E016E4B
:10384E007F0E026EFF0E036EA8D0086A096A07503B
:10385E00D8B4C2EF1CF00350D8B4C7EF1CF002501E
:10386E0006180A6E028E068E0E6A02C008F001C09D
:10387E000CF000C00DF004500D5E0550D8A0053CB4
:10388E000C5E0650D8A0063C085E086A0C6A0D6AEB
:10389E00D8A059EF1CF0D890023201320032083213
:1038AE00010E0E6E0750035ED8A066EF1CF07E0E62
:1038BE000E240326D8B0CCEF1CF06CEF1CF07E0E5D
:1038CE000E240326D8A0D1EF1CF0180E0B6E0D3669
:1038DE000C3608360036013602360E360450005EBF
:1038EE000550D8A0053C015E0650D8A0063C025EED
:1038FE0006340E120EA087EF1CF00D8092EF1CF016
:10390E00045000260550D8B0053C01260650D8B00C
:10391E00062802260D900B2E6EEF1CF0B8EF1CF051
:10392E00D8900036013602360E360450005E055031
:10393E00D8A0053C015E0650D8A0063C025E0634B7
:10394E000E10010B0D26D8B00C2AD8B4082AD8A414
:10395E00B8EF1CF008320C320D32032AD8B4CCEF7B
:10396E001CF00AAE089E0850026E0C50016E0D50EF
:10397E00006ED4EF1CF0010EEBEC0DF0D4EF1CF04A
:10398E00020EA6EC03F0D4EF1CF0040E4EEC04F085
:0C399E00D4EF1CF0080E1DEC05F0120028
:1039AA00800E0301F019006E800E000A005CD8B088
:1039BA006DD1F0510008016E01C0F0F3800E0118BC
:1039CA00006E800E6E0A005CD8A0C0D0640E046E31
:1039DA00F0C300F09CEC0DF0120E0024056E000EF0
:1039EA0000BEFF0E066E000E062205C000F006C0DD
:1039FA0001F0000E06BEFF0E026E036E0036009046
:103A0A000136023603360036009001360236033696
:103A1A00FD0E0024F66E820E0120F76E000E0220C3
:103A2A00F86E0900F5CFF1F30900F5CFF2F30900BA
:103A3A00F5CFF3F30900F5CFF4F3640E046EF0C387
:103A4A0000F09CEC0DF008C000F00A0E046E9CEC2D
:103A5A000DF0090E0024056E000E00BEFF0E066E64
:103A6A00000E062205C000F006C001F0000E06BED8
:103A7A00FF0E026E036E00360090013602360336E0
:103A8A0000360090013602360336FD0E0024F66E2B
:103A9A00820E0120F76E000E0220F86E0900F5CFA3
:103AAA0000F00900F5CF01F00900F5CF02F0090096
:103ABA00F5CF03F0F1C304F0F2C305F0F3C306F047
:103ACA00F4C307F009EC0DF000C0F1F301C0F2F302
:103ADA0002C0F3F303C0F4F30A0E046EF0C300F05D
:103AEA009CEC0DF008C000F000C001F0000E00BE12
:103AFA00FF0E026E036E046E013601900236033623
:103B0A00043601360190023603360436FD0E0124CE
:103B1A00F66E820E0220F76E000E0320F86E090080
:103B2A00F5CF00F00900F5CF01F00900F5CF02F05A
:103B3A000900F5CF03F0F1C304F0F2C305F0F3C3B3
:103B4A0006F0F4C307F009EC0DF007D2800E0A0A5A
:103B5A00006E800EF019005C71E20A0E046EF0C36A
:103B6A0000F09CEC0DF0090E0024056E000E00BE5C
:103B7A00FF0E066E000E062205C000F006C001F018
:103B8A00000E06BEFF0E026E036E0036009001366E
:103B9A000236033600360090013602360336FD0E31
:103BAA000024F66E820E0120F76E000E0220F86ED7
:103BBA000900F5CFF1F30900F5CFF2F30900F5CFCB
:103BCA00F3F30900F5CFF4F30A0E046EF0C300F024
:103BDA009CEC0DF008C000F000C001F0000E00BE21
:103BEA00FF0E026E036E046E013601900236033632
:103BFA00043601360190023603360436FD0E0124DE
:103C0A00F66E820E0220F76E000E0320F86E09008F
:103C1A00F5CF00F00900F5CF01F00900F5CF02F069
:103C2A000900F5CF03F0F1C304F0F2C305F0F3C3C2
:103C3A0006F0F4C307F009EC0DF08FD1F0C300F0E1
:103C4A00000EF0BFFF0E016E026E036E003600908A
:103C5A000136023603360036009001360236033644
:103C6A00FD0E0024F66E820E0120F76E000E022071
:103C7A00F86E0900F5CF00F00900F5CF01F0090050
:103C8A00F5CF02F00900F5CF03F067D1800EF019E5
:103C9A00006E800E6E0A005CD8A0C0D0640E046E5E
:103CAA00F0C300F09CEC0DF0120E0024056E000E1D
:103CBA0000BEFF0E066E000E062205C000F006C00A
:103CCA0001F0000E06BEFF0E026E036E0036009073
:103CDA0001360236033600360090013602360336C4
:103CEA00C90E0024F66E820E0120F76E000E022025
:103CFA00F86E0900F5CFF1F30900F5CFF2F30900E8
:103D0A00F5CFF3F30900F5CFF4F3640E046EF0C3B4
:103D1A0000F09CEC0DF008C000F00A0E046E9CEC5A
:103D2A000DF0090E0024056E000E00BEFF0E066E91
:103D3A00000E062205C000F006C001F0000E06BE05
:103D4A00FF0E026E036E003600900136023603360D
:103D5A0000360090013602360336C90E0024F66E8C
:103D6A00820E0120F76E000E0220F86E0900F5CFD0
:103D7A0000F00900F5CF01F00900F5CF02F00900C3
:103D8A00F5CF03F0F1C304F0F2C305F0F3C306F074
:103D9A00F4C307F009EC0DF000C0F1F301C0F2F32F
:103DAA0002C0F3F303C0F4F30A0E046EF0C300F08A
:103DBA009CEC0DF008C000F000C001F0000E00BE3F
:103DCA00FF0E026E036E046E013601900236033650
:103DDA00043601360190023603360436C90E012430
:103DEA00F66E820E0220F76E000E0320F86E0900AE
:103DFA00F5CF00F00900F5CF01F00900F5CF02F088
:103E0A000900F5CF03F0F1C304F0F2C305F0F3C3E0
:103E1A0006F0F4C307F009EC0DF09FD0800E0A0AF1
:103E2A00006E800EF019005C71E20A0E046EF0C397
:103E3A0000F09CEC0DF0090E0024056E000E00BE89
:103E4A00FF0E066E000E062205C000F006C001F045
:103E5A00000E06BEFF0E026E036E0036009001369B
:103E6A000236033600360090013602360336C90E92
:103E7A000024F66E820E0120F76E000E0220F86E04
:103E8A000900F5CFF1F30900F5CFF2F30900F5CFF8
:103E9A00F3F30900F5CFF4F30A0E046EF0C300F051
:103EAA009CEC0DF008C000F000C001F0000E00BE4E
:103EBA00FF0E026E036E046E01360190023603365F
:103ECA00043601360190023603360436C90E01243F
:103EDA00F66E820E0220F76E000E0320F86E0900BD
:103EEA00F5CF00F00900F5CF01F00900F5CF02F097
:103EFA000900F5CF03F0F1C304F0F2C305F0F3C3F0
:103F0A0006F0F4C307F009EC0DF027D0F0C300F077
:103F1A00000EF0BFFF0E016E026E036E00360090B7
:103F2A000136023603360036009001360236033671
:103F3A00C90E0024F66E820E0120F76E000E0220D2
:103F4A00F86E0900F5CF00F00900F5CF01F009007D
:0C3F5A00F5CF02F00900F5CF03F01200D3
:103F66000B6A0C6A0A6A086A0350D8B43BEF20F061
:103F7600028E9E0E035E03BEC6EF1FF0D8B4C6EFD8
:103F86001FF02BEF20F0036C080E035CD8A0F8EFAF
:103F96001FF0036E083600C008F001C000F002C032
:103FA60001F0026A080E035CD8A0F8EF1FF0036E5A
:103FB600083600C008F001C000F0016A080E035C74
:103FC600D8A0F8EF1FF0036E083600C008F0006AAC
:103FD600080E035CD8A0F8EF1FF0036E0836086AD7
:103FE6000350D8A4D89004EF20F00350D8B404EFBF
:103FF60020F0D8900232013200320832032EFCEF54
:104006001FF00BBC08A015EF20F0D8A015EF20F08C
:10401600082AD8B4002AD8B4012AD8B4022A02BE83
:104026003FEF20F00AAE3BEF20F0021E011E001EFD
:10403600081E082AD8B4002AD8B4012AD8B4022AFD
:104046003BEF20F0026A016A006A086A3BEF20F043
:104056000B800BAE45EF20F0026A0AAE45EF20F06A
:10406600026E016E006E086E0A36023245EF20F0CF
:10407600000E0C6A46EF20F0010E0C6E3BEC18F0B9
:1040860046EF20F0FF0E0250036E0150026E005004
:08409600016E0850006E1200DB
:10409E0003500718D8A463EF20F002500618D8A4D6
:1040AE0063EF20F001500518D8A463EF20F0005004
:0E40BE000418D8B4D8841200D894120012004E
:0840CC00067E58EC12F0120010
:1040D4000050086E0150006E0250016E0350026ED3
:1040E400036A0B6A0C6A9E0E036E0A6A020E0C6E59
:0640F40083EC07F012004E
:1040FA000B6A0C6A086A0350D8B401EF21F002C0B7
:10410A000AF0028E9E0E035E03AEF1EF20F0036CFE
:10411A00080E035CD8A0BEEF20F0036E083600C07C
:10412A0008F001C000F002C001F0026A080E035C48
:10413A00D8A0BEEF20F0036E083600C008F001C018
:10414A0000F0016A080E035CD8A0BEEF20F0036EEF
:10415A00083600C008F0006A080E035CD8A0BEEF5B
:10416A0020F0036E0836086A0350D8A4D890CAEF24
:10417A0020F00350D8B4CAEF20F0D89002320132AE
:10418A0000320832032EC2EF20F00BBC08A0DBEF8E
:10419A0020F0D8A0DBEF20F0082AD8B4002AD8B43F
:1041AA00012AD8B4022A02BE05EF21F00AAE01EFB5
:1041BA0021F0021E011E001E081E082AD8B4002A79
:1041CA00D8B4012AD8B4022A01EF21F0026A016A9E
:1041DA00006A086A01EF21F00B800BAE0CEF21F0A8
:1041EA00026A0AAE0CEF21F0026E016E006E086ED2
:1041FA000A3602320CEF21F00C6A000E0DEF21F0A4
:10420A00010E0C6E000E3BEC18F00DEF21F0FF0EC4
:10421A000250036E0150026E0050016E0850006E8B
:02422A00120080
:10422C00EFEC0DF0F50E0301F06F000EF16FF50ED3
:10423C00F26F000EF36F0001EC51FF0A03E1FF0E69
:10424C00006EB3D0EC51FC0A03E1FF0E006EADD052
:10425C00EC51000AD8A4A4D0300E0301F0250401BF
:10426C00256F000E0301F1210401266F59EC03F0B8
:10427C0000500001BC250401256F01500001BD2137
:10428C000401266F000E0001BE210401276F000EF1
:10429C000001BF210401286F5AEC04F00050000A01
:1042AC0003E0FF0E006E81D0F50E0301F26F000EDD
:1042BC00F36FFE0EF2250401256F010E0301F321AD
:1042CC000401266F59EC03F00150AA0A02E1550EC5
:1042DC00001806E0FC0E0001EC6FFF0E006E65D0BE
:1042EC00F2C325F4F3C326F4C1EC03F00350410AE6
:1042FC0008E10250610A05E10150520A02E1005046
:10430C00520A06E0FA0E0001EC6FFF0E006E4DD063
:10431C00E40E0301F2250401256F010E0301F321C4
:10432C000401266FC1EC03F00350610A08E102504E
:10433C00410A05E10150720A02E10050720A06E0DE
:10434C00FA0E0001EC6FFF0E006E2FD0E80E030189
:10435C00F2250401256F010E0301F3210401266FE0
:10436C00C1EC03F000C0E0F001C0E1F002C0E2F0EB
:10437C0003C0E3F0EC0E0301F2250401256F010EDE
:10438C000301F3210401266FC1EC03F000C0E4F03B
:10439C0001C0E5F002C0E6F003C0E7F0006A05D00A
:0C43AC00FA0E0001EC6FFF0E006E120014
:1043B800A90E04011E6F000E1F6F206B070E216FE0
:1043C800000E226F43EC05F0780E1E6F030E1F6F70
:1043D800206B070E216F000E226F43EC05F0710E63
:1043E8001E6F030E1F6F206B070E216F000E226FCA
:1043F80043EC05F0BA0E1E6F000E1F6F206B2E0ED9
:10440800216F000E226F43EC05F0F10E1E6F000EB7
:104418001F6F206B040E216F020E226F43EC05F014
:10442800090E1E6F030E1F6F206B040E006E000E28
:10443800016E1A0E0002F3CF21F4F4CF22F443ECFC
:1044480005F0FF0E0001F16FFF0EF26FFF0EF36F24
:10445800FF0EF46FF50EB86F020EB96FA76B02016D
:10446800F96BF56BF66BF76BF86B0001E86BE96BB2
:10447800EA6BEB6BB06BB16BB26BB36BEC6B1200AE
:104488006BEC14F0000E001803E0FF0E006E01D074
:04449800006A1200A4
:10449C001A0E006E000E016EF0C304F0000E030144
:1044AC00F0BFFF0E056E7EEC03F0090E0024F96FD1
:1044BC00030E0120FA6F800EF019006E800E000AB8
:1044CC00005C0CE3800EF0BF7F0E006E000E800AC5
:1044DC00005C02E1040EF05D01E206D0D80E000192
:1044EC00EC6FFF0E006E53D1180E0301F925D96E37
:1044FC00000EFA21DA6E000EDE1806E1DC0E000169
:10450C00EC6FFF0E006E43D1140E0301F925D96E2A
:10451C00000EFA21DA6EDECF01F0DECF02F0DECF34
:10452C0003F0DECF04F0F451045C08E1F351035CBA
:10453C0005E1F251025C02E1F151015C06E2DB0E95
:10454C000001EC6FFF0E006E22D1100E0301F92555
:10455C00E96E000EFA21EA6EEECF01F0EECF02F01A
:10456C00EECF03F0EECF04F00450F41908E1035041
:10457C00F31905E10250F21902E10150F11902E1BF
:10458C00006A05D1100EF925E96E000EFA21EA6ECB
:10459C00EECF01F0EECF02F0EECF03F0EECF04F051
:1045AC00FFC200F001C005F002C006F003C007F026
:1045BC0004C008F0005007E008320732063205321A
:1045CC00089EFF0FF8D7FFC200F0F1C301F0F2C351
:1045DC0002F0F3C303F0F4C304F0005007E004321C
:1045EC00033202320132049EFF0FF8D70850041830
:1045FC0008E10750031805E10650021802E10550C6
:10460C00011811E10301100EF925E16E000EFA21DB
:10461C00E26EF1C3E6FFF2C3E6FFF3C3E6FFF4C3B9
:10462C00E6FF006AB4D00301100EF925E16E000E0E
:10463C00FA21E26EF1C3E6FFF2C3E6FFF3C3E6FF35
:10464C00F4C3E6FF100EF925E96E000EFA21EA6EAE
:10465C00EECF01F0EECF02F0EECF03F0EECF04F090
:10466C00FFC200F001C0F5F302C0F6F303C0F7F38C
:10467C0004C0F8F3005007E0F833F733F633F533A2
:10468C00F89FFF0FF8D7040EF925E16E000EFA2102
:10469C00E26EF9C3E9FFFAC3EAFFEECF00F0EECF0A
:1046AC0001F0EECF02F0EECF03F000C0E6FF01C048
:1046BC00E6FF02C0E6FF03C0E6FFF851000808E180
:1046CC00F751000805E1F651000802E1F551000828
:1046DC005DE2040EF925FB6F000EFA21FC6FFBC3A3
:1046EC00E9FFFCC3EAFFEECF0BF4EECF0CF4EECFF8
:1046FC000DF4EECF0EF408EC0AF0FBC3E1FFFCC3A3
:10470C00E2FF00C0E6FF01C0E6FF02C0E6FF03C007
:10471C00E6FF040E0301F925D96E000EFA21DA6EBC
:10472C00DECF01F0DECF02F0DECF03F0DECF04F0FF
:10473C000F0E041808E1FF0E031805E1FF0E021816
:10474C0002E1FF0E01181AE1100EF925E16E000EC0
:10475C00FA21E26E140EF925E96E000EFA21EA6ECA
:10476C00EECFE6FFEECFE6FFEECFE6FFEECFE6FFB5
:10477C00DB0E0001EC6FFF0E006E09D0010E030181
:10478C00F55F000EF65BF75BF85B97D7006A1200DB
:10479C00F0C30BF4F1C30CF4F40E04010D6F030E13
:1047AC000E6F57EC0BF00050000A06E0E20E000111
:1047BC00EC6FFF0E006E10D1E8C001F4E9C002F4FA
:1047CC00EAC003F4EBC004F40001D7510401045D0A
:1047DC000EE10001D6510401035D09E10001D55140
:1047EC000401025D04E10001D4510401015D15E3F3
:1047FC000201F8510401045D0EE10201F7510401BC
:10480C00035D09E10201F6510401025D04E10201BC
:10481C00F5510401015D01E206D0F40E0001EC6FCC
:10482C00FF0E006ED9D0F50E0401096F000E0A6F51
:10483C0001C40BF402C40CF403C40DF404C40EF450
:10484C00DBEC09F000C025F401C026F402C027F40B
:10485C0003C028F4C2EC04F00050000A03E0FF0E81
:10486C00006EBAD00401056B066B076B086B000178
:10487C00F0510401085D0EE10001EF510401075DE8
:10488C0009E10001EE510401065D04E10001ED5166
:10489C000401055DD8B077D00A510001B91903E1C4
:1048AC00B851040109190DE10401F50E096F000E50
:1048BC000A6F66EC09F00050000A03E0FF0E006E70
:1048CC008BD009C40BF40AC40CF4F40E04010D6F64
:1048DC00030E0E6F0B0E0F6F000E106F26EC0BF00D
:1048EC00000E011802E1000E001842E125EC02F066
:1048FC000050000A03E0FF0E006E6ED00301F2516F
:10490C00F31127E009C40BF40AC40CF4F2C30DF440
:10491C00F3C30EF4A3EC0AF0160E0301F225E16EBC
:10492C00000EF321E26E01C4E6FF02C4E6FF03C4ED
:10493C00E6FF04C4E6FF1A0EF225E16E000EF32129
:10494C00E26E05C4E6FF06C4E6FF07C4E6FF08C432
:10495C00E6FF09C40BF40AC40CF472EC0CF009C4A5
:10496C000BF40AC40CF44DEC17F0010E006E34D0AD
:10497C00200E0927000E0A23010E0527000E062320
:10498C000723082374D725EC02F00050000A03E03B
:10499C00FF0E006E21D001C40BF402C40CF403C44E
:1049AC000DF404C40EF408EC0AF000C001F401C0CC
:1049BC0002F402C003F403C004F403500F0A08E12C
:1049CC000250FF0A05E10150FF0A02E10050FF0A04
:0A49DC0002E1006A01D0F8D61200D3
:1049E6001C0E0301F025E16E000EF121E26EF2C30A
:1049F600E6FF1C0EF025006E000EF121016E010E81
:104A06000024E16E000E0120E26EF3C3E6FF1C0EE9
:104A1600F025006E000EF121016E020E0024E16EFB
:104A2600000E0120E26EF4C3E6FF1C0EF025006EB8
:104A3600000EF121016E030E0024E16E000E01202E
:0A4A4600E26EF5C3E6FF006A1200FD
:104A50000201F95302E1006A65D0F50E0301F06F1F
:104A6000000EF16FF50E04011E6F000E1F6F206B1C
:104A7000000E216F020E226F43EC05F0F0C3E1FF40
:104A8000F1C3E2FF520EE66E520EE66E610EE66E66
:104A9000410EE66EE40E0301F025E16E010EF121F8
:104AA000E26E720EE66E720EE66E410EE66E610EFC
:104AB000E66EE80EF025E16E010EF121E26EE0C037
:104AC000E6FFE1C0E6FFE2C0E6FFE3C0E6FFEC0E72
:104AD000F025E16E010EF121E26EE4C0E6FFE5C0D3
:104AE000E6FFE6C0E6FFE7C0E6FFFE0EF025E16E5A
:104AF000010EF121E26E550EE66EAA0EE66EDCC0E6
:104B00001EF4DDC01FF4DEC020F4DFC021F426EC6B
:104B100009F00050000A03E0FF0E006E03D002010E
:064B2000F96B006A1200AF
:104B2600F0C302F0F1C303F0F2C3F6FFF3C3F7FFDD
:104B3600F4C3F8FF0900F5CF00F0F0C3E1FFF1C3BD
:104B4600E2FF00C0E6FFF2C3F6FFF3C3F7FFF4C3CC
:104B5600F8FF0900F5CF01F00150000A01E109D084
:104B6600010E0301F227000EF323F423F04BF12B81
:0C4B7600DBD702C000F003C001F0120009
:104B8200E8C0FCF3E9C0FDF3EAC0FEF3EBC0FFF3BB
:104B92000001D7510301FF5D0EE10001D65103016F
:104BA200FE5D09E10001D5510301FD5D04E1000153
:104BB200D4510301FC5D15E30201F8510301FF5DCD
:104BC2000EE10201F7510301FE5D09E10201F65116
:104BD2000301FD5D04E10201F5510301FC5D01E207
:104BE20006D0F40E0001EC6FFF0E006E66D1F50EDA
:104BF2000301F66F000EF76FFCC30BF4FDC30CF458
:104C0200FEC30DF4FFC30EF4DBEC09F000C005F4A3
:104C120001C006F402C007F403C008F400C025F482
:104C220001C026F402C027F403C028F4C2EC04F049
:104C32000050000A03E0FF0E006E3FD10301F86B43
:104C4200F96BFA6BFB6B0001F0510301FB5D0EE1A6
:104C52000001EF510301FA5D09E10001EE51030188
:104C6200F95D04E10001ED510301F85DD8B07ED099
:104C7200F7510001B91903E1B8510301F61914E122
:104C8200010E04010527000E062307230823F50E53
:104C92000301F66F000EF76F66EC09F00050000A90
:104CA20003E0FF0E006E09D1F6C3E9FFF7C3EAFF86
:104CB200EECF01F00150E50A0AE0F6C3E9FFF7C3BF
:104CC200EAFFEECF01F0200E015C01E343D025ECB8
:104CD20002F00050000A03E0FF0E006EEED0F6C3B1
:104CE2000BF4F7C30CF4F0C30DF4F1C30EF4200E71
:104CF20004010F6F000E106F13EC18F0F6C30BF4E3
:104D0200F7C30CF4F2C30DF4F3C30EF4F4C30FF4BF
:104D1200F5C310F4E4EC17F0F6C30BF4F7C30CF48C
:104D2200DDEC15F0F6C30BF4F7C30CF41FEC15F031
:104D320005C41EF406C41FF407C420F408C421F4F9
:104D420026EC09F00050000A03E0FF0E006EB5D019
:104D5200006AB3D0200E0301F627000EF723010EDE
:104D6200F827000EF923FA23FB236DD725EC02F076
:104D72000050000A03E0FF0E006E9FD0FCC30BF44C
:104D8200FDC30CF4FEC30DF4FFC30EF408EC0AF0ED
:104D920000C001F401C002F402C003F403C004F431
:104DA20003500F0A08E10250FF0A05E10150FF0A11
:104DB20002E10050FF0AD8A477D051EC10F000C0F5
:104DC20001F401C002F402C003F403C004F403506E
:104DD2000F0A08E10250FF0A05E10150FF0A02E151
:104DE2000050FF0A06E1F20E0001EC6FFF0E006EAA
:104DF20064D001C40BF402C40CF403C40DF404C463
:104E02000EF4FCC30FF4FDC310F4FEC311F4FFC390
:104E120012F49BEC16F0000E001803E0FF0E006E79
:104E22004CD0F50E04011E6F000E1F6F206B000E9A
:104E3200216F020E226F43EC05F0FCC30BF4FDC39D
:104E42000CF4FEC30DF4FFC30EF4DBEC09F000C05A
:104E520005F401C006F402C007F403C008F404011B
:104E6200006B0001C6510401005D1EE205C41EF480
:104E720006C41FF407C420F408C421F4010E052758
:104E8200000E06230723082326EC09F00050000A2F
:104E920003E0FF0E006E11D0010E0301F827000E91
:104EA200F923FA23FB23DDD701C4FCF302C4FDF38B
:0C4EB20003C4FEF304C4FFF36BD612002F
:104EBE00F0C30BF4F1C30CF4F2C30DF4F3C30EF410
:104ECE000B0E04010F6F000E106F13EC18F0006A3A
:024EDE001200C0
:104EE0000B0E0301F025E16E000EF121E26EF2C31C
:064EF000E6FF006A12005B
:104EF60095C3D9FF96C3DAFF5C0EDE1819E1010EE1
:104F060003019525D96E000E9621DA6E000EDE1885
:104F16000FE10001B06BB16BB26BB36BD4C0E8F0BC
:104F2600D5C0E9F0D6C0EAF0D7C0EBF0006A46D0AB
:104F360095C3F0F396C3F1F3970E0301F26F030ED8
:104F4600F36F29DC010E001803E0FF0E006E36D069
:104F5600100E0301A415016E000E011806E1EB0EFA
:104F66000001EC6FFF0E006E29D00001B06BB16B33
:104F7600B26BB36BA9C3E8F0AAC3E9F0ABC3EAF01E
:104F8600ACC3EBF0D7510301AC5D0EE10001D65185
:104F96000301AB5D09E10001D5510301AA5D04E1FE
:104FA6000001D4510301A95D08E2D4C0E8F0D5C0E0
:0E4FB600E9F0D6C0EAF0D7C0EBF0006A1200B6
:104FC4000301B56BB66BA96BAA6B97C300F098C3CA
:104FD40001F099C302F0010E9727000E982399233C
:104FE40000C0F6FF01C0F7FF02C0F8FF0900F5CFCB
:104FF40000F000C0A6F30052D8B4F2EF37F0A65187
:10500400250A0BE095C3E1FF96C3E2FFA6C3E6FFC2
:10501400954B962BB54BB62BD8D7A76BA86BA96B22
:10502400AA6B23D0A987010E9727000E98239923F2
:1050340059D0A981010E9727000E9823992352D0A5
:10504400A983010E9727000E982399234BD0AA8792
:10505400010E9727000E9823992344D0A985010EA9
:105064009727000E982399233DD097C3F6FF98C342
:10507400F7FF99C3F8FF0900F5CF01F001502D0A9D
:10508400D1E097C3F6FF98C3F7FF99C3F8FF09006F
:10509400F5CF01F00150200ACCE097C3F6FF98C386
:1050A400F7FF99C3F8FF0900F5CF01F001502B0A6F
:1050B400C7E097C3F6FF98C3F7FF99C3F8FF090049
:1050C400F5CF01F00150230AC2E097C3F6FF98C35D
:1050D400F7FF99C3F8FF0900F5CF01F00150300A3A
:1050E400BDE001D09ED7A9A301D0A991A9A701D061
:1050F400A99597C3F6FF98C3F7FF99C3F8FF090072
:10510400F5CF00F0000E016E00C0F0F3A7EC1BF029
:10511400005236E0A76BA86BA7C300F0A8C301F048
:105124000A0E046E000E056E7EEC03F097C3F6FFC4
:1051340098C3F7FF99C3F8FF0900F5CF02F00250B6
:105144000024A76F000E0120A86F300EA75F000E89
:10515400A85B010E9727000E9823992397C3F6FFA7
:1051640098C3F7FF99C3F8FF0900F5CF00F0000ECC
:10517400016E00C0F0F3A7EC1BF00052CDE133D078
:1051840097C3F6FF98C3F7FF99C3F8FF0900F5CF5B
:1051940001F001502A0A27E19AC3E9FF9BC3EAFF01
:1051A400EECF00F0EECF01F000C0E9FF01C0EAFF4E
:1051B400EECFA7F3EECFA8F39AC3E9FF9BC3EAFFB0
:1051C400020EEE24006E000EEE20016E9AC3E1FF83
:1051D4009BC3E2FF00C0E6FF01C0E6FF010E972774
:1051E400000E9823992397C3F6FF98C3F7FF99C33A
:1051F400F8FF0900F5CF01F001502E0A70E1010E0D
:105204009727000E9823992397C3F6FF98C3F7FFB7
:1052140099C3F8FF0900F5CF01F001502A0A28E1EB
:105224009AC3E9FF9BC3EAFFEECF00F0EECF01F093
:1052340000C0E9FF01C0EAFFEECFA4F3EECFA5F36F
:105244009AC3E9FF9BC3EAFF020EEE24006E000E30
:10525400EE20016E9AC3E1FF9BC3E2FF00C0E6FFAC
:1052640001C0E6FF010E9727000E9823992336D03C
:10527400A46BA56B97C3F6FF98C3F7FF99C3F8FF18
:105284000900F5CF00F0000E016E00C0F0F3A7ECAA
:105294001BF0005223E0A4C300F0A5C301F00A0EE2
:1052A400046E000E056E7EEC03F097C3F6FF98C300
:1052B400F7FF99C3F8FF0900F5CF02F0025000246C
:1052C400A46F000E0120A56F300EA45F000EA55B35
:1052D400010E9727000E98239923CCD703D0A46BF3
:1052E400A56BAA8997C300F098C301F099C302F093
:1052F400010E9727000E9823992300C0F6FF01C0E2
:10530400F7FF02C0F8FF0900F5CFA6F3F9D0B5C343
:1053140000F0B6C301F0F6EF37F0A989E3D7AA8508
:105324002ED1A98BAA812BD1AA8329D1A98D27D1CA
:1053340026D1A98BA98F23D19AC3E9FF9BC3EAFF86
:10534400EECF00F0EECF01F000C0E9FF01C0EAFFAC
:10535400EECFB1F3EECFB2F39AC3E9FF9BC3EAFFFA
:10536400020EEE24006E000EEE20016E9AC3E1FFE1
:105374009BC3E2FF00C0E6FF01C0E6FF000EB219C6
:1053840002E1000EB11904E1160EB16F000EB26F06
:10539400B36BB46BB351B125E96EB451B221EA6E6B
:1053A400EE520BE0010EB325006E000EB421016E27
:1053B40000C0B3F301C0B4F3EDD7A451A5110AE0C2
:1053C400B451A55D02E1B351A45D04E2A4C3B3F3F7
:1053D400A5C3B4F3A851B45D02E1A751B35D05E2DE
:1053E400B351A75FB451A85B02D0A76BA86BA9B750
:1053F40016D0A7C300F0A8C301F0010EA75F000EEA
:10540400A85B005001100BE095C3E1FF96C3E2FFD7
:10541400200EE66E954B962BB54BB62BEAD7B3C34D
:1054240002F0B4C303F0010EB35D006E000EB45974
:10543400016E00C0B3F301C0B4F30250031019E0CD
:10544400B1C3E9FFB2C3EAFF95C3E1FF96C3E2FF2C
:10545400EECFE6FF954B962B010EB125006E000EA4
:10546400B221016E00C0B1F301C0B2F3B54BB62B4B
:10547400D6D7A9A716D0A7C300F0A8C301F0010E80
:10548400A75F000EA85B005001100BE095C3E1FF7D
:1054940096C3E2FF200EE66E954B962BB54BB62BCA
:1054A400EAD793D59AC3E9FF9BC3EAFFEECF00F096
:1054B400EECF01F000C0E9FF01C0EAFFEECFA6F392
:1054C4009AC3E9FF9BC3EAFF020EEE24006E000EAE
:1054D400EE20016E9AC3E1FF9BC3E2FF00C0E6FF2A
:1054E40001C0E6FFA60EB16F030EB26F010EB36FDB
:1054F400000EB46F62D7C00EA913000EAA133FD0DA
:10550400A651000AD8B403D7A6516C0AD8B405D75B
:10551400A6514C0AD8B401D7A651660AD8B4FFD60E
:10552400A651450AD8B4FDD6A651650AD8B4FAD610
:10553400A651670AD8B4F8D6A6516F0AD8B4F6D6DD
:10554400A651640AD8B4F4D6A651690AD8B4F0D6E0
:10555400A651700AD8B4EDD6A651580AD8B4E9D6E3
:10556400A651780AD8B4E6D6A651730AD8B4E4D6BC
:10557400A651630A97E0A651750ABDE0B3D7000EA1
:10558400A915006EAA51070B016E00500110D8B482
:1055940099EF33F0AAA904D0060EA46F000EA56FEC
:1055A4009AC3E9FF9BC3EAFFEECF00F0EECF01F010
:1055B40000C0E9FF01C0EAFFEECFABF3EECFACF3DE
:1055C400EECFADF3EECFAEF39AC3E9FF9BC3EAFF90
:1055D400040EEE24006E000EEE20016E9AC3E1FF6D
:1055E4009BC3E2FF00C0E6FF01C0E6FF046A056A50
:1055F400066A076AABC300F0ACC301F0ADC302F0A6
:10560400AEC303F040EC1BF0010ED8B0000E006EE8
:10561400005205E0AD7F030EA913000EAA13AF6B71
:10562400B06BABC300F0ACC301F0ADC302F0AEC3CA
:1056340003F0046A056A066A076A4FEC20F0000E5C
:10564400D8A4010E006E0052D8B48AD0AEC300F0C4
:10565400016A026A036AFF0E0016000E01167E0E2E
:10566400005E000E015A00C0AFF301C0B0F3010E9A
:10567400005E000E015A00C0AFF301C0B0F3030E88
:10568400046E000E056E7EEC03F000C0AFF301C0A3
:10569400B0F30A0E046E000E056EB3EC1BF000C0EE
:1056A400AFF301C0B0F3800E0118026E800E025CED
:1056B40002E1000E005C05E2010E0301AF5F000E83
:1056C400B05B0301AF510008F06FD5EC1CF0ABC325
:1056D40004F0ACC305F0ADC306F0AEC307F009ECAB
:1056E4000DF000C0B1F301C0B2F302C0B3F303C0C4
:1056F400B4F3000E046E000E056E000E066E7F0EEF
:10570400076EB1C300F0B2C301F0B3C302F0B4C377
:1057140003F040EC1BF0010ED8B0000E006E0052F6
:1057240005E0010EAF5F000EB05B1AD0000E046EF0
:10573400000E056E200E066E820E076EB1C300F0D9
:10574400B2C301F0B3C302F0B4C303F040EC1BF0E6
:10575400000ED8B0010E006E005202E0AF4BB02B29
:10576400800E006E800EB019005C02E1AF5100089B
:1057740003E3010EA66F02D0AFC3A6F3AAB118D0FB
:10578400AAA315D0800EB019006E7F0E005C02E152
:10579400FC0EAF5D0BE3800EB019006E800EA519F0
:1057A400005C02E1A451AF5D01E201D001D0F1D36C
:1057B400A451A51106E0AAA304D0010EA45F000E13
:1057C400A55B000E006EA551005C02E1A45108081F
:1057D40003E2080EA66F02D0A4C3A6F3ABC300F085
:1057E400ACC301F0ADC302F0AEC303F0046A056AB2
:1057F400066A076A4FEC20F0000ED8A4010E006E72
:105804000052D8B44BD1AFC3F0F3D5EC1CF000C0B8
:1058140004F001C005F002C006F003C007F0ABC3FA
:1058240000F0ACC301F0ADC302F0AEC303F017EC5B
:105834001CF000C0ABF301C0ACF302C0ADF303C075
:10584400AEF30301A6510008F06FD5EC1CF000C0C4
:1058540004F001C005F002C006F003C007F0ABC3BA
:1058640000F0ACC301F0ADC302F0AEC303F017EC1B
:105874001CF000C0B7F301C0B8F302C0B9F303C011
:10588400BAF3B7C3ABF3B8C3ACF3B9C3ADF3BAC39C
:10589400AEF3B7C300F0B8C301F0B9C302F0BAC3A2
:1058A40003F0B3EC1FF06AEC20F000C004F001C078
:1058B40005F002C006F003C007F0B7C300F0B8C398
:1058C40001F0B9C302F0BAC303F066EC20F0000E95
:1058D400046E000E056E000E066E7E0E076E40EC22
:1058E4001BF0000ED8B0010E006E00521AE0ABC3DC
:1058F40000F0ACC301F0ADC302F0AEC303F0000E80
:10590400046E000E056E000E066E7E0E076E58ECD9
:1059140012F000C0ABF301C0ACF302C0ADF303C09E
:10592400AEF3ABC300F0ACC301F0ADC302F0AEC341
:1059340003F0B3EC1FF00301A651010F096E0A6ACC
:10594400000E0A2209C004F00AC005F0000E0ABEC7
:10595400FF0E066E076E04360490053606360736CB
:1059640004360490053606360736610E0424F66EB6
:10597400830E0520F76E000E0620F86E0900F5CFA1
:1059840005F00900F5CF06F00900F5CF07F009008E
:10599400F5CF08F00850035C08E10750025C05E10C
:1059A4000650015C02E10550005C1EE30301ABC339
:1059B40000F0ACC301F0ADC302F0AEC303F0CD0EF2
:1059C400046ECC0E056E4C0E066E7B0E076E09EC53
:1059D4000DF000C0ABF301C0ACF302C0ADF303C0E3
:1059E400AEF3AF4BB02B5AD0ABC300F0ACC301F055
:1059F400ADC302F0AEC303F0B3EC1FF0A6C304F0D2
:105A0400000E056E066E076E0436049005360636E3
:105A1400073604360490053606360736610E04242C
:105A2400F66E830E0520F76E000E0620F86E090050
:105A3400F5CF05F00900F5CF06F00900F5CF07F022
