:1000000066EF01F00000000000EF00F000000000CB
:0A0010000000000000000000F3D71C
:0C001C0016B002D0899001D0898012003B
:10002800010E166E000E176EF5DF020E0C6E0E0E28
:100038000D6E0D2EFED70C2EFCD7000000008B880D
:1000480015C081FF166A176AE5DF020E0C6E0E0EE8
:100058000D6E0D2EFED70C2EFCD700000000010EF1
:10006800166E000E176ED6DF020E0C6E0E0E0D6E9B
:100078000D2EFED70C2EFCD70000000015C081FF06
:10008800166A176AC7DF020E0C6E0E0E0D6E0D2E65
:0C009800FED70C2EFCD700000000120068
:1000A4000900F5CFE6FF0006FBE10106F9E11200C5
:1000B4009290936A9498010E166E000E176EACDF40
:1000C400200E0C6EE90E0D6E0D2EFED70C2EFCD7F5
:1000D400000000008B98220E816E166A176A9CDF5E
:1000E400020E0C6E0E0E0D6E0D2EFED70C2EFCD7CE
:1000F40000000000010E166E000E176E8DDF020E5A
:100104000C6E0E0E0D6E0D2EFED70C2EFCD70000BD
:100114000000166A176A80DF020E0C6E0E0E0D6E5A
:100124000D2EFED70C2EFCD700000000010E166E1B
:10013400000E176E71DF020E0C6E0E0E0D6E0D2E7C
:10014400FED70C2EFCD700000000CC0E816E166A80
:10015400176A62DF020E0C6E0E0E0D6E0D2EFED7A8
:100164000C2EFCD700000000010E166E000E176E58
:1001740053DF020E0C6E0E0E0D6E0D2EFED70C2EDE
:10018400FCD700000000816A166A176A45DF020E78
:100194000C6E0E0E0D6E0D2EFED70C2EFCD700002D
:1001A4000000010E166E000E176E36DF020E0C6E86
:1001B4000E0E0D6E0D2EFED70C2EFCD70000000087
:1001C400FF0E816E166A176A27DF020E0C6E0E0E82
:1001D4000D6E0D2EFED70C2EFCD700000000010E74
:1001E400166E000E176E18DF020E0C6E0E0E0D6EDC
:1001F4000D2EFED70C2EFCD700000000816A166A73
:10020400176A0ADF020E0C6E0E0E0D6E0D2EFED74F
:100214000C2EFCD700000000010E166E000E176EA7
:10022400FBDE020E0C6E0E0E0D6E0D2EFED70C2E86
:10023400FCD700000000110E816E166A176AECDE0E
:10024400030E0C6E1F0E0D6E0D2EFED70C2EFCD75A
:10025400010E166E000E176EDFDE020E0C6E0E0E11
:100264000D6E0D2EFED70C2EFCD700000000816A07
:10027400166A176AD1DE020E0C6E0E0E0D6E0D2E6E
:10028400FED70C2EFCD700000000010E166E000EE7
:10029400176EC2DE020E0C6E0E0E0D6E0D2EFED704
:1002A4000C2EFCD700000000770E816E166A176AC8
:1002B400B3DE020E0C6E0E0E0D6E0D2EFED70C2E3E
:0802C400FCD70000000012004D
:0A02CC00F3DE550E156EAADEFFD713
:020000040030CA
:0D000100C20F3E3C1D81FF0FC00FE00F40FD
:00000001FF
