:100000009DEF00F00000000000EF00F00000000095
:0A0010000000000000000000F3D71C
:10001C00030E0C6E970E0D6E0D2EFED70C2EFCD70C
:10002C00000000008B8815C081FF8990030E0C6EB8
:10003C00970E0D6E0D2EFED70C2EFCD70000000077
:02004C001200A0
:10004E000900F5CFE6FF0006FBE10106F9E112001B
:10005E009290936A949889804E0E0C6EEB0E0D6EF4
:10006E000D2EFED70C2EFCD78B983C0E816E8990F0
:10007E00030E0C6E970E0D6E0D2EFED70C2EFCD7AA
:10008E00000000008980030E0C6E970E0D6E0D2E73
:10009E00FED70C2EFCD7000000000F0E816E89904B
:1000AE00030E0C6E970E0D6E0D2EFED70C2EFCD77A
:1000BE00000000008980030E0C6E970E0D6E0D2E43
:1000CE00FED70C2EFCD700000000010E816E899029
:1000DE00030E0C6E970E0D6E0D2EFED70C2EFCD74A
:1000EE00000000008980030E0C6E970E0D6E0D2E13
:1000FE00FED70C2EFCD700000000060E816E8990F4
:10010E00030E0C6E970E0D6E0D2EFED70C2EFCD719
:10011E00000000008980030E0C6E970E0D6E0D2EE2
:0C012E00FED70C2EFCD7000000001200D1
:0A013A0091DF770E156E6DDFFFD721
:020000040030CA
:0D000100C20F3E3C1D81FF0FC00FE00F40FD
:00000001FF
