:1000000054EF00F00000000000EF00F000000000DE
:0A0010000000000000000000F3D71C
:0E001C00870E0D6E0D2EFED7000000001200A4
:10002A000900F5CFE6FF0006FBE10106F9E112003F
:10003A001C6A18C001F0010E006E015004E000367F
:10004A000090FF0FFBD700C01BF016C0E9FF17C0D6
:10005A00EAFF0050EE14016E0152010ED8A4000E00
:10006A00006E1A50001A18E01950000804E2D1DF95
:10007A00D0DF1906F9D716C0E9FF17C0EAFF1B50EF
:10008A00EE14016E0152010ED8A4000E006E1A5031
:0E009A00001A02E0FF0E1C6E1CC000F01200E7
:1000A8009380946A8B881590810E166E0F0E176ECA
:1000B800186A010E196E010E1A6EBBDF0052D8A421
:1000C800158015A00DD0810E166E0F0E176E186ACA
:1000D800010E196E1A6AADDF005202E08B78159096
:0400E800E3D7FFD784
:020000040030CA
:0D000100011F1EFF0281FF3FC03FE03F4096
:00000001FF
